{
  "_format": "hh-sol-artifact-1",
  "contractName": "MyEpicNFT",
  "sourceName": "contracts/MyEpicNFT.sol",
  "abi": [
    {
      "inputs": [],
      "stateMutability": "payable",
      "type": "constructor"
    },
    {
      "anonymous": false,
      "inputs": [
        {
          "indexed": true,
          "internalType": "address",
          "name": "owner",
          "type": "address"
        },
        {
          "indexed": true,
          "internalType": "address",
          "name": "approved",
          "type": "address"
        },
        {
          "indexed": true,
          "internalType": "uint256",
          "name": "tokenId",
          "type": "uint256"
        }
      ],
      "name": "Approval",
      "type": "event"
    },
    {
      "anonymous": false,
      "inputs": [
        {
          "indexed": true,
          "internalType": "address",
          "name": "owner",
          "type": "address"
        },
        {
          "indexed": true,
          "internalType": "address",
          "name": "operator",
          "type": "address"
        },
        {
          "indexed": false,
          "internalType": "bool",
          "name": "approved",
          "type": "bool"
        }
      ],
      "name": "ApprovalForAll",
      "type": "event"
    },
    {
      "anonymous": false,
      "inputs": [
        {
          "indexed": false,
          "internalType": "address",
          "name": "sender",
          "type": "address"
        },
        {
          "indexed": false,
          "internalType": "uint256",
          "name": "tokenId",
          "type": "uint256"
        }
      ],
      "name": "NewEpicNFTMinted",
      "type": "event"
    },
    {
      "anonymous": false,
      "inputs": [
        {
          "indexed": true,
          "internalType": "address",
          "name": "previousOwner",
          "type": "address"
        },
        {
          "indexed": true,
          "internalType": "address",
          "name": "newOwner",
          "type": "address"
        }
      ],
      "name": "OwnershipTransferred",
      "type": "event"
    },
    {
      "anonymous": false,
      "inputs": [
        {
          "indexed": true,
          "internalType": "address",
          "name": "from",
          "type": "address"
        },
        {
          "indexed": true,
          "internalType": "address",
          "name": "to",
          "type": "address"
        },
        {
          "indexed": true,
          "internalType": "uint256",
          "name": "tokenId",
          "type": "uint256"
        }
      ],
      "name": "Transfer",
      "type": "event"
    },
    {
      "inputs": [],
      "name": "MAX_PER_MINT",
      "outputs": [
        {
          "internalType": "uint256",
          "name": "",
          "type": "uint256"
        }
      ],
      "stateMutability": "view",
      "type": "function"
    },
    {
      "inputs": [],
      "name": "MAX_SUPPLY",
      "outputs": [
        {
          "internalType": "uint256",
          "name": "",
          "type": "uint256"
        }
      ],
      "stateMutability": "view",
      "type": "function"
    },
    {
      "inputs": [],
      "name": "PRICE",
      "outputs": [
        {
          "internalType": "uint256",
          "name": "",
          "type": "uint256"
        }
      ],
      "stateMutability": "view",
      "type": "function"
    },
    {
      "inputs": [
        {
          "internalType": "address",
          "name": "to",
          "type": "address"
        },
        {
          "internalType": "uint256",
          "name": "tokenId",
          "type": "uint256"
        }
      ],
      "name": "approve",
      "outputs": [],
      "stateMutability": "nonpayable",
      "type": "function"
    },
    {
      "inputs": [
        {
          "internalType": "address",
          "name": "owner",
          "type": "address"
        }
      ],
      "name": "balanceOf",
      "outputs": [
        {
          "internalType": "uint256",
          "name": "",
          "type": "uint256"
        }
      ],
      "stateMutability": "view",
      "type": "function"
    },
    {
      "inputs": [
        {
          "internalType": "uint256",
          "name": "tokenId",
          "type": "uint256"
        }
      ],
      "name": "getApproved",
      "outputs": [
        {
          "internalType": "address",
          "name": "",
          "type": "address"
        }
      ],
      "stateMutability": "view",
      "type": "function"
    },
    {
      "inputs": [],
      "name": "getLastTokenId",
      "outputs": [
        {
          "internalType": "uint256",
          "name": "",
          "type": "uint256"
        }
      ],
      "stateMutability": "view",
      "type": "function"
    },
    {
      "inputs": [
        {
          "internalType": "address",
          "name": "owner",
          "type": "address"
        },
        {
          "internalType": "address",
          "name": "operator",
          "type": "address"
        }
      ],
      "name": "isApprovedForAll",
      "outputs": [
        {
          "internalType": "bool",
          "name": "",
          "type": "bool"
        }
      ],
      "stateMutability": "view",
      "type": "function"
    },
    {
      "inputs": [],
      "name": "makeAnEpicNFT",
      "outputs": [],
      "stateMutability": "payable",
      "type": "function"
    },
    {
      "inputs": [],
      "name": "name",
      "outputs": [
        {
          "internalType": "string",
          "name": "",
          "type": "string"
        }
      ],
      "stateMutability": "view",
      "type": "function"
    },
    {
      "inputs": [],
      "name": "owner",
      "outputs": [
        {
          "internalType": "address",
          "name": "",
          "type": "address"
        }
      ],
      "stateMutability": "view",
      "type": "function"
    },
    {
      "inputs": [
        {
          "internalType": "uint256",
          "name": "tokenId",
          "type": "uint256"
        }
      ],
      "name": "ownerOf",
      "outputs": [
        {
          "internalType": "address",
          "name": "",
          "type": "address"
        }
      ],
      "stateMutability": "view",
      "type": "function"
    },
    {
      "inputs": [
        {
          "internalType": "uint256",
          "name": "tokenId",
          "type": "uint256"
        }
      ],
      "name": "pickRandomFirstWord",
      "outputs": [
        {
          "internalType": "string",
          "name": "",
          "type": "string"
        }
      ],
      "stateMutability": "view",
      "type": "function"
    },
    {
      "inputs": [
        {
          "internalType": "uint256",
          "name": "tokenId",
          "type": "uint256"
        }
      ],
      "name": "pickRandomSecondWord",
      "outputs": [
        {
          "internalType": "string",
          "name": "",
          "type": "string"
        }
      ],
      "stateMutability": "view",
      "type": "function"
    },
    {
      "inputs": [
        {
          "internalType": "uint256",
          "name": "tokenId",
          "type": "uint256"
        }
      ],
      "name": "pickRandomThirdWord",
      "outputs": [
        {
          "internalType": "string",
          "name": "",
          "type": "string"
        }
      ],
      "stateMutability": "view",
      "type": "function"
    },
    {
      "inputs": [],
      "name": "renounceOwnership",
      "outputs": [],
      "stateMutability": "nonpayable",
      "type": "function"
    },
    {
      "inputs": [
        {
          "internalType": "address",
          "name": "from",
          "type": "address"
        },
        {
          "internalType": "address",
          "name": "to",
          "type": "address"
        },
        {
          "internalType": "uint256",
          "name": "tokenId",
          "type": "uint256"
        }
      ],
      "name": "safeTransferFrom",
      "outputs": [],
      "stateMutability": "nonpayable",
      "type": "function"
    },
    {
      "inputs": [
        {
          "internalType": "address",
          "name": "from",
          "type": "address"
        },
        {
          "internalType": "address",
          "name": "to",
          "type": "address"
        },
        {
          "internalType": "uint256",
          "name": "tokenId",
          "type": "uint256"
        },
        {
          "internalType": "bytes",
          "name": "_data",
          "type": "bytes"
        }
      ],
      "name": "safeTransferFrom",
      "outputs": [],
      "stateMutability": "nonpayable",
      "type": "function"
    },
    {
      "inputs": [
        {
          "internalType": "address",
          "name": "operator",
          "type": "address"
        },
        {
          "internalType": "bool",
          "name": "approved",
          "type": "bool"
        }
      ],
      "name": "setApprovalForAll",
      "outputs": [],
      "stateMutability": "nonpayable",
      "type": "function"
    },
    {
      "inputs": [
        {
          "internalType": "bytes4",
          "name": "interfaceId",
          "type": "bytes4"
        }
      ],
      "name": "supportsInterface",
      "outputs": [
        {
          "internalType": "bool",
          "name": "",
          "type": "bool"
        }
      ],
      "stateMutability": "view",
      "type": "function"
    },
    {
      "inputs": [],
      "name": "symbol",
      "outputs": [
        {
          "internalType": "string",
          "name": "",
          "type": "string"
        }
      ],
      "stateMutability": "view",
      "type": "function"
    },
    {
      "inputs": [
        {
          "internalType": "uint256",
          "name": "tokenId",
          "type": "uint256"
        }
      ],
      "name": "tokenURI",
      "outputs": [
        {
          "internalType": "string",
          "name": "",
          "type": "string"
        }
      ],
      "stateMutability": "view",
      "type": "function"
    },
    {
      "inputs": [
        {
          "internalType": "address",
          "name": "from",
          "type": "address"
        },
        {
          "internalType": "address",
          "name": "to",
          "type": "address"
        },
        {
          "internalType": "uint256",
          "name": "tokenId",
          "type": "uint256"
        }
      ],
      "name": "transferFrom",
      "outputs": [],
      "stateMutability": "nonpayable",
      "type": "function"
    },
    {
      "inputs": [
        {
          "internalType": "address",
          "name": "newOwner",
          "type": "address"
        }
      ],
      "name": "transferOwnership",
      "outputs": [],
      "stateMutability": "nonpayable",
      "type": "function"
    },
    {
      "inputs": [],
      "name": "withdraw",
      "outputs": [],
      "stateMutability": "payable",
      "type": "function"
    }
  ],
  "bytecode": "0x608060405260405180610160016040528061012f81526020016200516261012f9139600990805190602001906200003892919062000974565b506040518061012001604052806040518060400160405280600181526020017f310000000000000000000000000000000000000000000000000000000000000081525081526020016040518060400160405280600181526020017f320000000000000000000000000000000000000000000000000000000000000081525081526020016040518060400160405280600181526020017f330000000000000000000000000000000000000000000000000000000000000081525081526020016040518060400160405280600181526020017f340000000000000000000000000000000000000000000000000000000000000081525081526020016040518060400160405280600181526020017f350000000000000000000000000000000000000000000000000000000000000081525081526020016040518060400160405280600181526020017f360000000000000000000000000000000000000000000000000000000000000081525081526020016040518060400160405280600181526020017f370000000000000000000000000000000000000000000000000000000000000081525081526020016040518060400160405280600181526020017f380000000000000000000000000000000000000000000000000000000000000081525081526020016040518060400160405280600181526020017f3900000000000000000000000000000000000000000000000000000000000000815250815250600a9060096200026892919062000a05565b506040518061012001604052806040518060400160405280600181526020017f310000000000000000000000000000000000000000000000000000000000000081525081526020016040518060400160405280600181526020017f320000000000000000000000000000000000000000000000000000000000000081525081526020016040518060400160405280600181526020017f330000000000000000000000000000000000000000000000000000000000000081525081526020016040518060400160405280600181526020017f340000000000000000000000000000000000000000000000000000000000000081525081526020016040518060400160405280600181526020017f350000000000000000000000000000000000000000000000000000000000000081525081526020016040518060400160405280600181526020017f360000000000000000000000000000000000000000000000000000000000000081525081526020016040518060400160405280600181526020017f370000000000000000000000000000000000000000000000000000000000000081525081526020016040518060400160405280600181526020017f380000000000000000000000000000000000000000000000000000000000000081525081526020016040518060400160405280600181526020017f3900000000000000000000000000000000000000000000000000000000000000815250815250600b9060096200049892919062000a05565b506040518061012001604052806040518060400160405280600181526020017f310000000000000000000000000000000000000000000000000000000000000081525081526020016040518060400160405280600181526020017f320000000000000000000000000000000000000000000000000000000000000081525081526020016040518060400160405280600181526020017f330000000000000000000000000000000000000000000000000000000000000081525081526020016040518060400160405280600181526020017f340000000000000000000000000000000000000000000000000000000000000081525081526020016040518060400160405280600181526020017f350000000000000000000000000000000000000000000000000000000000000081525081526020016040518060400160405280600181526020017f360000000000000000000000000000000000000000000000000000000000000081525081526020016040518060400160405280600181526020017f370000000000000000000000000000000000000000000000000000000000000081525081526020016040518060400160405280600181526020017f380000000000000000000000000000000000000000000000000000000000000081525081526020016040518060400160405280600181526020017f3900000000000000000000000000000000000000000000000000000000000000815250815250600c906009620006c892919062000a05565b506040518060400160405280600981526020017f332d4e756d6265727300000000000000000000000000000000000000000000008152506040518060400160405280600681526020017f4e554d424552000000000000000000000000000000000000000000000000000081525081600090805190602001906200074d92919062000974565b5080600190805190602001906200076692919062000974565b505050620007896200077d620007da60201b60201c565b620007e260201b60201c565b620007d46040518060400160405280601881526020017f54686973206973206d79204e465420636f6e74726163742e0000000000000000815250620008a860201b620017b41760201c565b62000c26565b600033905090565b6000600760009054906101000a900473ffffffffffffffffffffffffffffffffffffffff16905081600760006101000a81548173ffffffffffffffffffffffffffffffffffffffff021916908373ffffffffffffffffffffffffffffffffffffffff1602179055508173ffffffffffffffffffffffffffffffffffffffff168173ffffffffffffffffffffffffffffffffffffffff167f8be0079c531659141344cd1fd0a4f28419497f9722a3daafe3b4186f6b6457e060405160405180910390a35050565b6200094881604051602401620008bf919062000b3a565b6040516020818303038152906040527f41304fac000000000000000000000000000000000000000000000000000000007bffffffffffffffffffffffffffffffffffffffffffffffffffffffff19166020820180517bffffffffffffffffffffffffffffffffffffffffffffffffffffffff83818316178352505050506200094b60201b60201c565b50565b60008151905060006a636f6e736f6c652e6c6f679050602083016000808483855afa5050505050565b828054620009829062000bb0565b90600052602060002090601f016020900481019282620009a65760008555620009f2565b82601f10620009c157805160ff1916838001178555620009f2565b82800160010185558215620009f2579182015b82811115620009f1578251825591602001919060010190620009d4565b5b50905062000a01919062000a6c565b5090565b82805482825590600052602060002090810192821562000a59579160200282015b8281111562000a5857825182908051906020019062000a4792919062000974565b509160200191906001019062000a26565b5b50905062000a68919062000a8b565b5090565b5b8082111562000a8757600081600090555060010162000a6d565b5090565b5b8082111562000aaf576000818162000aa5919062000ab3565b5060010162000a8c565b5090565b50805462000ac19062000bb0565b6000825580601f1062000ad5575062000af6565b601f01602090049060005260206000209081019062000af5919062000a6c565b5b50565b600062000b068262000b5e565b62000b12818562000b69565b935062000b2481856020860162000b7a565b62000b2f8162000c15565b840191505092915050565b6000602082019050818103600083015262000b56818462000af9565b905092915050565b600081519050919050565b600082825260208201905092915050565b60005b8381101562000b9a57808201518184015260208101905062000b7d565b8381111562000baa576000848401525b50505050565b6000600282049050600182168062000bc957607f821691505b6020821081141562000be05762000bdf62000be6565b5b50919050565b7f4e487b7100000000000000000000000000000000000000000000000000000000600052602260045260246000fd5b6000601f19601f8301169050919050565b61452c8062000c366000396000f3fe6080604052600436106101665760003560e01c8063715018a6116100d1578063b187301f1161008a578063c87b56dd11610064578063c87b56dd14610531578063de9d132f1461056e578063e985e9c514610578578063f2fde38b146105b557610166565b8063b187301f1461048e578063b88d4fde146104cb578063c575757a146104f457610166565b8063715018a6146103a257806383c4c00d146103b95780638d859f3e146103e45780638da5cb5b1461040f57806395d89b411461043a578063a22cb4651461046557610166565b80632de38d68116101235780632de38d681461028d57806332cb6b0c146102ca5780633ccfd60b146102f557806342842e0e146102ff5780636352211e1461032857806370a082311461036557610166565b806301ffc9a71461016b57806306fdde03146101a8578063081812fc146101d3578063095ea7b31461021057806309d42b301461023957806323b872dd14610264575b600080fd5b34801561017757600080fd5b50610192600480360381019061018d9190612d42565b6105de565b60405161019f919061354d565b60405180910390f35b3480156101b457600080fd5b506101bd6106c0565b6040516101ca9190613568565b60405180910390f35b3480156101df57600080fd5b506101fa60048036038101906101f59190612d94565b610752565b60405161020791906134bd565b60405180910390f35b34801561021c57600080fd5b5061023760048036038101906102329190612d06565b6107d7565b005b34801561024557600080fd5b5061024e6108ef565b60405161025b9190613898565b60405180910390f35b34801561027057600080fd5b5061028b60048036038101906102869190612c00565b6108f4565b005b34801561029957600080fd5b506102b460048036038101906102af9190612d94565b610954565b6040516102c19190613568565b60405180910390f35b3480156102d657600080fd5b506102df610af0565b6040516102ec9190613898565b60405180910390f35b6102fd610af5565b005b34801561030b57600080fd5b5061032660048036038101906103219190612c00565b610c69565b005b34801561033457600080fd5b5061034f600480360381019061034a9190612d94565b610c89565b60405161035c91906134bd565b60405180910390f35b34801561037157600080fd5b5061038c60048036038101906103879190612b9b565b610d3b565b6040516103999190613898565b60405180910390f35b3480156103ae57600080fd5b506103b7610df3565b005b3480156103c557600080fd5b506103ce610e7b565b6040516103db9190613898565b60405180910390f35b3480156103f057600080fd5b506103f9610e91565b6040516104069190613898565b60405180910390f35b34801561041b57600080fd5b50610424610e9c565b60405161043191906134bd565b60405180910390f35b34801561044657600080fd5b5061044f610ec6565b60405161045c9190613568565b60405180910390f35b34801561047157600080fd5b5061048c60048036038101906104879190612cca565b610f58565b005b34801561049a57600080fd5b506104b560048036038101906104b09190612d94565b610f6e565b6040516104c29190613568565b60405180910390f35b3480156104d757600080fd5b506104f260048036038101906104ed9190612c4f565b61108c565b005b34801561050057600080fd5b5061051b60048036038101906105169190612d94565b6110ee565b6040516105289190613568565b60405180910390f35b34801561053d57600080fd5b5061055860048036038101906105539190612d94565b61120c565b6040516105659190613568565b60405180910390f35b61057661135e565b005b34801561058457600080fd5b5061059f600480360381019061059a9190612bc4565b611628565b6040516105ac919061354d565b60405180910390f35b3480156105c157600080fd5b506105dc60048036038101906105d79190612b9b565b6116bc565b005b60007f80ac58cd000000000000000000000000000000000000000000000000000000007bffffffffffffffffffffffffffffffffffffffffffffffffffffffff1916827bffffffffffffffffffffffffffffffffffffffffffffffffffffffff191614806106a957507f5b5e139f000000000000000000000000000000000000000000000000000000007bffffffffffffffffffffffffffffffffffffffffffffffffffffffff1916827bffffffffffffffffffffffffffffffffffffffffffffffffffffffff1916145b806106b957506106b88261184d565b5b9050919050565b6060600080546106cf90613b37565b80601f01602080910402602001604051908101604052809291908181526020018280546106fb90613b37565b80156107485780601f1061071d57610100808354040283529160200191610748565b820191906000526020600020905b81548152906001019060200180831161072b57829003601f168201915b5050505050905090565b600061075d826118b7565b61079c576040517f08c379a0000000000000000000000000000000000000000000000000000000008152600401610793906137d8565b60405180910390fd5b6004600083815260200190815260200160002060009054906101000a900473ffffffffffffffffffffffffffffffffffffffff169050919050565b60006107e282610c89565b90508073ffffffffffffffffffffffffffffffffffffffff168373ffffffffffffffffffffffffffffffffffffffff161415610853576040517f08c379a000000000000000000000000000000000000000000000000000000000815260040161084a90613838565b60405180910390fd5b8073ffffffffffffffffffffffffffffffffffffffff16610872611923565b73ffffffffffffffffffffffffffffffffffffffff1614806108a157506108a08161089b611923565b611628565b5b6108e0576040517f08c379a00000000000000000000000000000000000000000000000000000000081526004016108d7906136f8565b60405180910390fd5b6108ea838361192b565b505050565b600381565b6109056108ff611923565b826119e4565b610944576040517f08c379a000000000000000000000000000000000000000000000000000000000815260040161093b90613878565b60405180910390fd5b61094f838383611ac2565b505050565b6060600061098861096484611d29565b6040516020016109749190613464565b604051602081830303815290604052611ed6565b90506109c96040518060400160405280600d81526020017f72616e64202d20736565643a200000000000000000000000000000000000000081525082611f09565b600a80549050816109da9190613be3565b9050610a1b6040518060400160405280601381526020017f72616e64202d20666972737420776f72643a200000000000000000000000000081525082611f09565b600a8181548110610a55577f4e487b7100000000000000000000000000000000000000000000000000000000600052603260045260246000fd5b906000526020600020018054610a6a90613b37565b80601f0160208091040260200160405190810160405280929190818152602001828054610a9690613b37565b8015610ae35780601f10610ab857610100808354040283529160200191610ae3565b820191906000526020600020905b815481529060010190602001808311610ac657829003601f168201915b5050505050915050919050565b606481565b610afd611923565b73ffffffffffffffffffffffffffffffffffffffff16610b1b610e9c565b73ffffffffffffffffffffffffffffffffffffffff1614610b71576040517f08c379a0000000000000000000000000000000000000000000000000000000008152600401610b68906137f8565b60405180910390fd5b600047905060008111610bb9576040517f08c379a0000000000000000000000000000000000000000000000000000000008152600401610bb090613798565b60405180910390fd5b60003373ffffffffffffffffffffffffffffffffffffffff1682604051610bdf906134a8565b60006040518083038185875af1925050503d8060008114610c1c576040519150601f19603f3d011682016040523d82523d6000602084013e610c21565b606091505b5050905080610c65576040517f08c379a0000000000000000000000000000000000000000000000000000000008152600401610c5c90613858565b60405180910390fd5b5050565b610c848383836040518060200160405280600081525061108c565b505050565b6000806002600084815260200190815260200160002060009054906101000a900473ffffffffffffffffffffffffffffffffffffffff169050600073ffffffffffffffffffffffffffffffffffffffff168173ffffffffffffffffffffffffffffffffffffffff161415610d32576040517f08c379a0000000000000000000000000000000000000000000000000000000008152600401610d2990613738565b60405180910390fd5b80915050919050565b60008073ffffffffffffffffffffffffffffffffffffffff168273ffffffffffffffffffffffffffffffffffffffff161415610dac576040517f08c379a0000000000000000000000000000000000000000000000000000000008152600401610da390613718565b60405180910390fd5b600360008373ffffffffffffffffffffffffffffffffffffffff1673ffffffffffffffffffffffffffffffffffffffff168152602001908152602001600020549050919050565b610dfb611923565b73ffffffffffffffffffffffffffffffffffffffff16610e19610e9c565b73ffffffffffffffffffffffffffffffffffffffff1614610e6f576040517f08c379a0000000000000000000000000000000000000000000000000000000008152600401610e66906137f8565b60405180910390fd5b610e796000611fa5565b565b600080610e88600861206b565b90508091505090565b66038d7ea4c6800081565b6000600760009054906101000a900473ffffffffffffffffffffffffffffffffffffffff16905090565b606060018054610ed590613b37565b80601f0160208091040260200160405190810160405280929190818152602001828054610f0190613b37565b8015610f4e5780601f10610f2357610100808354040283529160200191610f4e565b820191906000526020600020905b815481529060010190602001808311610f3157829003601f168201915b5050505050905090565b610f6a610f63611923565b8383612079565b5050565b60606000610fa2610f7e84611d29565b604051602001610f8e91906133fd565b604051602081830303815290604052611ed6565b9050600b8054905081610fb59190613be3565b9050600b8181548110610ff1577f4e487b7100000000000000000000000000000000000000000000000000000000600052603260045260246000fd5b90600052602060002001805461100690613b37565b80601f016020809104026020016040519081016040528092919081815260200182805461103290613b37565b801561107f5780601f106110545761010080835404028352916020019161107f565b820191906000526020600020905b81548152906001019060200180831161106257829003601f168201915b5050505050915050919050565b61109d611097611923565b836119e4565b6110dc576040517f08c379a00000000000000000000000000000000000000000000000000000000081526004016110d390613878565b60405180910390fd5b6110e8848484846121e6565b50505050565b606060006111226110fe84611d29565b60405160200161110e91906133db565b604051602081830303815290604052611ed6565b9050600c80549050816111359190613be3565b9050600c8181548110611171577f4e487b7100000000000000000000000000000000000000000000000000000000600052603260045260246000fd5b90600052602060002001805461118690613b37565b80601f01602080910402602001604051908101604052809291908181526020018280546111b290613b37565b80156111ff5780601f106111d4576101008083540402835291602001916111ff565b820191906000526020600020905b8154815290600101906020018083116111e257829003601f168201915b5050505050915050919050565b6060611217826118b7565b611256576040517f08c379a000000000000000000000000000000000000000000000000000000000815260040161124d906137b8565b60405180910390fd5b600060066000848152602001908152602001600020805461127690613b37565b80601f01602080910402602001604051908101604052809291908181526020018280546112a290613b37565b80156112ef5780601f106112c4576101008083540402835291602001916112ef565b820191906000526020600020905b8154815290600101906020018083116112d257829003601f168201915b505050505090506000611300612242565b9050600081511415611316578192505050611359565b60008251111561134b57808260405160200161133392919061333d565b60405160208183030381529060405292505050611359565b61135484612259565b925050505b919050565b600061136a600861206b565b9050806064101561137b5750611626565b66038d7ea4c680003410156113c5576040517f08c379a00000000000000000000000000000000000000000000000000000000081526004016113bc906136b8565b60405180910390fd5b60006113d082610954565b905060006113dd83610f6e565b905060006113ea846110ee565b9050600083838360405160200161140393929190613361565b60405160208183030381529060405290506000600985858560405160200161142e9493929190613392565b604051602081830303815290604052905061147d6040518060400160405280601581526020017f0a2d2d2d2d2d205356472064617461202d2d2d2d2d00000000000000000000008152506117b4565b611486816117b4565b6114c46040518060400160405280601581526020017f2d2d2d2d2d2d2d2d2d2d2d2d2d2d2d2d2d2d2d2d0a00000000000000000000008152506117b4565b60006114f8836114d384612300565b6040516020016114e492919061341f565b604051602081830303815290604052612300565b905060008160405160200161150d9190613486565b604051602081830303815290604052905061155c6040518060400160405280601581526020017f0a2d2d2d2d2d20546f6b656e20555249202d2d2d2d00000000000000000000008152506117b4565b611565816117b4565b6115a36040518060400160405280601581526020017f2d2d2d2d2d2d2d2d2d2d2d2d2d2d2d2d2d2d2d2d0a00000000000000000000008152506117b4565b6115ad33896124be565b6115b788826124dc565b6115da604051806060016040528060258152602001614492602591398933612550565b6115e460086125ef565b7febb98688741ffa4c7589bf325de30cf7becb63de567842e1ccdb6cb949fdc82c3389604051611615929190613524565b60405180910390a150505050505050505b565b6000600560008473ffffffffffffffffffffffffffffffffffffffff1673ffffffffffffffffffffffffffffffffffffffff16815260200190815260200160002060008373ffffffffffffffffffffffffffffffffffffffff1673ffffffffffffffffffffffffffffffffffffffff16815260200190815260200160002060009054906101000a900460ff16905092915050565b6116c4611923565b73ffffffffffffffffffffffffffffffffffffffff166116e2610e9c565b73ffffffffffffffffffffffffffffffffffffffff1614611738576040517f08c379a000000000000000000000000000000000000000000000000000000000815260040161172f906137f8565b60405180910390fd5b600073ffffffffffffffffffffffffffffffffffffffff168173ffffffffffffffffffffffffffffffffffffffff1614156117a8576040517f08c379a000000000000000000000000000000000000000000000000000000000815260040161179f90613618565b60405180910390fd5b6117b181611fa5565b50565b61184a816040516024016117c89190613568565b6040516020818303038152906040527f41304fac000000000000000000000000000000000000000000000000000000007bffffffffffffffffffffffffffffffffffffffffffffffffffffffff19166020820180517bffffffffffffffffffffffffffffffffffffffffffffffffffffffff8381831617835250505050612605565b50565b60007f01ffc9a7000000000000000000000000000000000000000000000000000000007bffffffffffffffffffffffffffffffffffffffffffffffffffffffff1916827bffffffffffffffffffffffffffffffffffffffffffffffffffffffff1916149050919050565b60008073ffffffffffffffffffffffffffffffffffffffff166002600084815260200190815260200160002060009054906101000a900473ffffffffffffffffffffffffffffffffffffffff1673ffffffffffffffffffffffffffffffffffffffff1614159050919050565b600033905090565b816004600083815260200190815260200160002060006101000a81548173ffffffffffffffffffffffffffffffffffffffff021916908373ffffffffffffffffffffffffffffffffffffffff160217905550808273ffffffffffffffffffffffffffffffffffffffff1661199e83610c89565b73ffffffffffffffffffffffffffffffffffffffff167f8c5be1e5ebec7d5bd14f71427d1e84f3dd0314c0f7b2291e5b200ac8c7c3b92560405160405180910390a45050565b60006119ef826118b7565b611a2e576040517f08c379a0000000000000000000000000000000000000000000000000000000008152600401611a25906136d8565b60405180910390fd5b6000611a3983610c89565b90508073ffffffffffffffffffffffffffffffffffffffff168473ffffffffffffffffffffffffffffffffffffffff161480611aa857508373ffffffffffffffffffffffffffffffffffffffff16611a9084610752565b73ffffffffffffffffffffffffffffffffffffffff16145b80611ab95750611ab88185611628565b5b91505092915050565b8273ffffffffffffffffffffffffffffffffffffffff16611ae282610c89565b73ffffffffffffffffffffffffffffffffffffffff1614611b38576040517f08c379a0000000000000000000000000000000000000000000000000000000008152600401611b2f90613638565b60405180910390fd5b600073ffffffffffffffffffffffffffffffffffffffff168273ffffffffffffffffffffffffffffffffffffffff161415611ba8576040517f08c379a0000000000000000000000000000000000000000000000000000000008152600401611b9f90613678565b60405180910390fd5b611bb383838361262e565b611bbe60008261192b565b6001600360008573ffffffffffffffffffffffffffffffffffffffff1673ffffffffffffffffffffffffffffffffffffffff1681526020019081526020016000206000828254611c0e9190613a4d565b925050819055506001600360008473ffffffffffffffffffffffffffffffffffffffff1673ffffffffffffffffffffffffffffffffffffffff1681526020019081526020016000206000828254611c65919061396c565b92505081905550816002600083815260200190815260200160002060006101000a81548173ffffffffffffffffffffffffffffffffffffffff021916908373ffffffffffffffffffffffffffffffffffffffff160217905550808273ffffffffffffffffffffffffffffffffffffffff168473ffffffffffffffffffffffffffffffffffffffff167fddf252ad1be2c89b69c2b068fc378daa952ba7f163c4a11628f55a4df523b3ef60405160405180910390a4611d24838383612633565b505050565b60606000821415611d71576040518060400160405280600181526020017f30000000000000000000000000000000000000000000000000000000000000008152509050611ed1565b600082905060005b60008214611da3578080611d8c90613b9a565b915050600a82611d9c91906139c2565b9150611d79565b60008167ffffffffffffffff811115611de5577f4e487b7100000000000000000000000000000000000000000000000000000000600052604160045260246000fd5b6040519080825280601f01601f191660200182016040528015611e175781602001600182028036833780820191505090505b5090505b60008514611eca57600182611e309190613a4d565b9150600a85611e3f9190613be3565b6030611e4b919061396c565b60f81b818381518110611e87577f4e487b7100000000000000000000000000000000000000000000000000000000600052603260045260246000fd5b60200101907effffffffffffffffffffffffffffffffffffffffffffffffffffffffffffff1916908160001a905350600a85611ec391906139c2565b9450611e1b565b8093505050505b919050565b600081604051602001611ee99190613326565b6040516020818303038152906040528051906020012060001c9050919050565b611fa18282604051602401611f1f92919061358a565b6040516020818303038152906040527f9710a9d0000000000000000000000000000000000000000000000000000000007bffffffffffffffffffffffffffffffffffffffffffffffffffffffff19166020820180517bffffffffffffffffffffffffffffffffffffffffffffffffffffffff8381831617835250505050612605565b5050565b6000600760009054906101000a900473ffffffffffffffffffffffffffffffffffffffff16905081600760006101000a81548173ffffffffffffffffffffffffffffffffffffffff021916908373ffffffffffffffffffffffffffffffffffffffff1602179055508173ffffffffffffffffffffffffffffffffffffffff168173ffffffffffffffffffffffffffffffffffffffff167f8be0079c531659141344cd1fd0a4f28419497f9722a3daafe3b4186f6b6457e060405160405180910390a35050565b600081600001549050919050565b8173ffffffffffffffffffffffffffffffffffffffff168373ffffffffffffffffffffffffffffffffffffffff1614156120e8576040517f08c379a00000000000000000000000000000000000000000000000000000000081526004016120df90613698565b60405180910390fd5b80600560008573ffffffffffffffffffffffffffffffffffffffff1673ffffffffffffffffffffffffffffffffffffffff16815260200190815260200160002060008473ffffffffffffffffffffffffffffffffffffffff1673ffffffffffffffffffffffffffffffffffffffff16815260200190815260200160002060006101000a81548160ff0219169083151502179055508173ffffffffffffffffffffffffffffffffffffffff168373ffffffffffffffffffffffffffffffffffffffff167f17307eab39ab6107e8899845ad3d59bd9653f200f220920489ca2b5937696c31836040516121d9919061354d565b60405180910390a3505050565b6121f1848484611ac2565b6121fd84848484612638565b61223c576040517f08c379a0000000000000000000000000000000000000000000000000000000008152600401612233906135f8565b60405180910390fd5b50505050565b606060405180602001604052806000815250905090565b6060612264826118b7565b6122a3576040517f08c379a000000000000000000000000000000000000000000000000000000000815260040161229a90613818565b60405180910390fd5b60006122ad612242565b905060008151116122cd57604051806020016040528060008152506122f8565b806122d784611d29565b6040516020016122e892919061333d565b6040516020818303038152906040525b915050919050565b6060600082519050600081141561232957604051806020016040528060008152509150506124b9565b6000600360028361233a919061396c565b61234491906139c2565b600461235091906139f3565b90506000602082612361919061396c565b67ffffffffffffffff8111156123a0577f4e487b7100000000000000000000000000000000000000000000000000000000600052604160045260246000fd5b6040519080825280601f01601f1916602001820160405280156123d25781602001600182028036833780820191505090505b50905060006040518060600160405280604081526020016144b7604091399050600181016020830160005b868110156124765760038101905062ffffff818a015116603f8160121c168401518060081b905060ff603f83600c1c1686015116810190508060081b905060ff603f8360061c1686015116810190508060081b905060ff603f831686015116810190508060e01b905080845260048401935050506123fd565b50600386066001811461249057600281146124a0576124ab565b613d3d60f01b60028303526124ab565b603d60f81b60018303525b508484525050819450505050505b919050565b6124d88282604051806020016040528060008152506127cf565b5050565b6124e5826118b7565b612524576040517f08c379a000000000000000000000000000000000000000000000000000000000815260040161251b90613758565b60405180910390fd5b8060066000848152602001908152602001600020908051906020019061254b929190612a27565b505050565b6125ea838383604051602401612568939291906135ba565b6040516020818303038152906040527fe3849f79000000000000000000000000000000000000000000000000000000007bffffffffffffffffffffffffffffffffffffffffffffffffffffffff19166020820180517bffffffffffffffffffffffffffffffffffffffffffffffffffffffff8381831617835250505050612605565b505050565b6001816000016000828254019250508190555050565b60008151905060006a636f6e736f6c652e6c6f679050602083016000808483855afa5050505050565b505050565b505050565b60006126598473ffffffffffffffffffffffffffffffffffffffff1661282a565b156127c2578373ffffffffffffffffffffffffffffffffffffffff1663150b7a02612682611923565b8786866040518563ffffffff1660e01b81526004016126a494939291906134d8565b602060405180830381600087803b1580156126be57600080fd5b505af19250505080156126ef57506040513d601f19601f820116820180604052508101906126ec9190612d6b565b60015b612772573d806000811461271f576040519150601f19603f3d011682016040523d82523d6000602084013e612724565b606091505b5060008151141561276a576040517f08c379a0000000000000000000000000000000000000000000000000000000008152600401612761906135f8565b60405180910390fd5b805181602001fd5b63150b7a0260e01b7bffffffffffffffffffffffffffffffffffffffffffffffffffffffff1916817bffffffffffffffffffffffffffffffffffffffffffffffffffffffff1916149150506127c7565b600190505b949350505050565b6127d9838361284d565b6127e66000848484612638565b612825576040517f08c379a000000000000000000000000000000000000000000000000000000000815260040161281c906135f8565b60405180910390fd5b505050565b6000808273ffffffffffffffffffffffffffffffffffffffff163b119050919050565b600073ffffffffffffffffffffffffffffffffffffffff168273ffffffffffffffffffffffffffffffffffffffff1614156128bd576040517f08c379a00000000000000000000000000000000000000000000000000000000081526004016128b490613778565b60405180910390fd5b6128c6816118b7565b15612906576040517f08c379a00000000000000000000000000000000000000000000000000000000081526004016128fd90613658565b60405180910390fd5b6129126000838361262e565b6001600360008473ffffffffffffffffffffffffffffffffffffffff1673ffffffffffffffffffffffffffffffffffffffff1681526020019081526020016000206000828254612962919061396c565b92505081905550816002600083815260200190815260200160002060006101000a81548173ffffffffffffffffffffffffffffffffffffffff021916908373ffffffffffffffffffffffffffffffffffffffff160217905550808273ffffffffffffffffffffffffffffffffffffffff16600073ffffffffffffffffffffffffffffffffffffffff167fddf252ad1be2c89b69c2b068fc378daa952ba7f163c4a11628f55a4df523b3ef60405160405180910390a4612a2360008383612633565b5050565b828054612a3390613b37565b90600052602060002090601f016020900481019282612a555760008555612a9c565b82601f10612a6e57805160ff1916838001178555612a9c565b82800160010185558215612a9c579182015b82811115612a9b578251825591602001919060010190612a80565b5b509050612aa99190612aad565b5090565b5b80821115612ac6576000816000905550600101612aae565b5090565b6000612add612ad8846138d8565b6138b3565b905082815260208101848484011115612af557600080fd5b612b00848285613af5565b509392505050565b600081359050612b1781614435565b92915050565b600081359050612b2c8161444c565b92915050565b600081359050612b4181614463565b92915050565b600081519050612b5681614463565b92915050565b600082601f830112612b6d57600080fd5b8135612b7d848260208601612aca565b91505092915050565b600081359050612b958161447a565b92915050565b600060208284031215612bad57600080fd5b6000612bbb84828501612b08565b91505092915050565b60008060408385031215612bd757600080fd5b6000612be585828601612b08565b9250506020612bf685828601612b08565b9150509250929050565b600080600060608486031215612c1557600080fd5b6000612c2386828701612b08565b9350506020612c3486828701612b08565b9250506040612c4586828701612b86565b9150509250925092565b60008060008060808587031215612c6557600080fd5b6000612c7387828801612b08565b9450506020612c8487828801612b08565b9350506040612c9587828801612b86565b925050606085013567ffffffffffffffff811115612cb257600080fd5b612cbe87828801612b5c565b91505092959194509250565b60008060408385031215612cdd57600080fd5b6000612ceb85828601612b08565b9250506020612cfc85828601612b1d565b9150509250929050565b60008060408385031215612d1957600080fd5b6000612d2785828601612b08565b9250506020612d3885828601612b86565b9150509250929050565b600060208284031215612d5457600080fd5b6000612d6284828501612b32565b91505092915050565b600060208284031215612d7d57600080fd5b6000612d8b84828501612b47565b91505092915050565b600060208284031215612da657600080fd5b6000612db484828501612b86565b91505092915050565b612dc681613a81565b82525050565b612dd581613a93565b82525050565b6000612de68261391e565b612df08185613934565b9350612e00818560208601613b04565b612e0981613cd0565b840191505092915050565b6000612e1f82613929565b612e298185613950565b9350612e39818560208601613b04565b612e4281613cd0565b840191505092915050565b6000612e5882613929565b612e628185613961565b9350612e72818560208601613b04565b80840191505092915050565b60008154612e8b81613b37565b612e958186613961565b94506001821660008114612eb05760018114612ec157612ef4565b60ff19831686528186019350612ef4565b612eca85613909565b60005b83811015612eec57815481890152600182019150602081019050612ecd565b838801955050505b50505092915050565b6000612f0a603283613950565b9150612f1582613ce1565b604082019050919050565b6000612f2d602683613950565b9150612f3882613d30565b604082019050919050565b6000612f50602583613950565b9150612f5b82613d7f565b604082019050919050565b6000612f73601c83613950565b9150612f7e82613dce565b602082019050919050565b6000612f96600a83613961565b9150612fa182613df7565b600a82019050919050565b6000612fb9602483613950565b9150612fc482613e20565b604082019050919050565b6000612fdc601983613950565b9150612fe782613e6f565b602082019050919050565b6000612fff606383613961565b915061300a82613e98565b606382019050919050565b6000613022600b83613961565b915061302d82613f33565b600b82019050919050565b6000613045602283613950565b915061305082613f5c565b604082019050919050565b6000613068602c83613950565b915061307382613fab565b604082019050919050565b600061308b600d83613961565b915061309682613ffa565b600d82019050919050565b60006130ae603883613950565b91506130b982614023565b604082019050919050565b60006130d1602a83613950565b91506130dc82614072565b604082019050919050565b60006130f4602983613950565b91506130ff826140c1565b604082019050919050565b6000613117602e83613950565b915061312282614110565b604082019050919050565b600061313a600283613961565b91506131458261415f565b600282019050919050565b600061315d602083613950565b915061316882614188565b602082019050919050565b6000613180601983613950565b915061318b826141b1565b602082019050919050565b60006131a3603183613950565b91506131ae826141da565b604082019050919050565b60006131c6602c83613950565b91506131d182614229565b604082019050919050565b60006131e9602083613950565b91506131f482614278565b602082019050919050565b600061320c602f83613950565b9150613217826142a1565b604082019050919050565b600061322f600a83613961565b915061323a826142f0565b600a82019050919050565b6000613252602183613950565b915061325d82614319565b604082019050919050565b6000613275600a83613961565b915061328082614368565b600a82019050919050565b6000613298601d83613961565b91506132a382614391565b601d82019050919050565b60006132bb600083613945565b91506132c6826143ba565b600082019050919050565b60006132de601083613950565b91506132e9826143bd565b602082019050919050565b6000613301603183613950565b915061330c826143e6565b604082019050919050565b61332081613aeb565b82525050565b60006133328284612e4d565b915081905092915050565b60006133498285612e4d565b91506133558284612e4d565b91508190509392505050565b600061336d8286612e4d565b91506133798285612e4d565b91506133858284612e4d565b9150819050949350505050565b600061339e8287612e7e565b91506133aa8286612e4d565b91506133b68285612e4d565b91506133c28284612e4d565b91506133cd8261307e565b915081905095945050505050565b60006133e682612f89565b91506133f28284612e4d565b915081905092915050565b600061340882613015565b91506134148284612e4d565b915081905092915050565b600061342a82613222565b91506134368285612e4d565b915061344182612ff2565b915061344d8284612e4d565b91506134588261312d565b91508190509392505050565b600061346f82613268565b915061347b8284612e4d565b915081905092915050565b60006134918261328b565b915061349d8284612e4d565b915081905092915050565b60006134b3826132ae565b9150819050919050565b60006020820190506134d26000830184612dbd565b92915050565b60006080820190506134ed6000830187612dbd565b6134fa6020830186612dbd565b6135076040830185613317565b81810360608301526135198184612ddb565b905095945050505050565b60006040820190506135396000830185612dbd565b6135466020830184613317565b9392505050565b60006020820190506135626000830184612dcc565b92915050565b600060208201905081810360008301526135828184612e14565b905092915050565b600060408201905081810360008301526135a48185612e14565b90506135b36020830184613317565b9392505050565b600060608201905081810360008301526135d48186612e14565b90506135e36020830185613317565b6135f06040830184612dbd565b949350505050565b6000602082019050818103600083015261361181612efd565b9050919050565b6000602082019050818103600083015261363181612f20565b9050919050565b6000602082019050818103600083015261365181612f43565b9050919050565b6000602082019050818103600083015261367181612f66565b9050919050565b6000602082019050818103600083015261369181612fac565b9050919050565b600060208201905081810360008301526136b181612fcf565b9050919050565b600060208201905081810360008301526136d181613038565b9050919050565b600060208201905081810360008301526136f18161305b565b9050919050565b60006020820190508181036000830152613711816130a1565b9050919050565b60006020820190508181036000830152613731816130c4565b9050919050565b60006020820190508181036000830152613751816130e7565b9050919050565b600060208201905081810360008301526137718161310a565b9050919050565b6000602082019050818103600083015261379181613150565b9050919050565b600060208201905081810360008301526137b181613173565b9050919050565b600060208201905081810360008301526137d181613196565b9050919050565b600060208201905081810360008301526137f1816131b9565b9050919050565b60006020820190508181036000830152613811816131dc565b9050919050565b60006020820190508181036000830152613831816131ff565b9050919050565b6000602082019050818103600083015261385181613245565b9050919050565b60006020820190508181036000830152613871816132d1565b9050919050565b60006020820190508181036000830152613891816132f4565b9050919050565b60006020820190506138ad6000830184613317565b92915050565b60006138bd6138ce565b90506138c98282613b69565b919050565b6000604051905090565b600067ffffffffffffffff8211156138f3576138f2613ca1565b5b6138fc82613cd0565b9050602081019050919050565b60008190508160005260206000209050919050565b600081519050919050565b600081519050919050565b600082825260208201905092915050565b600081905092915050565b600082825260208201905092915050565b600081905092915050565b600061397782613aeb565b915061398283613aeb565b9250827fffffffffffffffffffffffffffffffffffffffffffffffffffffffffffffffff038211156139b7576139b6613c14565b5b828201905092915050565b60006139cd82613aeb565b91506139d883613aeb565b9250826139e8576139e7613c43565b5b828204905092915050565b60006139fe82613aeb565b9150613a0983613aeb565b9250817fffffffffffffffffffffffffffffffffffffffffffffffffffffffffffffffff0483118215151615613a4257613a41613c14565b5b828202905092915050565b6000613a5882613aeb565b9150613a6383613aeb565b925082821015613a7657613a75613c14565b5b828203905092915050565b6000613a8c82613acb565b9050919050565b60008115159050919050565b60007fffffffff0000000000000000000000000000000000000000000000000000000082169050919050565b600073ffffffffffffffffffffffffffffffffffffffff82169050919050565b6000819050919050565b82818337600083830152505050565b60005b83811015613b22578082015181840152602081019050613b07565b83811115613b31576000848401525b50505050565b60006002820490506001821680613b4f57607f821691505b60208210811415613b6357613b62613c72565b5b50919050565b613b7282613cd0565b810181811067ffffffffffffffff82111715613b9157613b90613ca1565b5b80604052505050565b6000613ba582613aeb565b91507fffffffffffffffffffffffffffffffffffffffffffffffffffffffffffffffff821415613bd857613bd7613c14565b5b600182019050919050565b6000613bee82613aeb565b9150613bf983613aeb565b925082613c0957613c08613c43565b5b828206905092915050565b7f4e487b7100000000000000000000000000000000000000000000000000000000600052601160045260246000fd5b7f4e487b7100000000000000000000000000000000000000000000000000000000600052601260045260246000fd5b7f4e487b7100000000000000000000000000000000000000000000000000000000600052602260045260246000fd5b7f4e487b7100000000000000000000000000000000000000000000000000000000600052604160045260246000fd5b6000601f19601f8301169050919050565b7f4552433732313a207472616e7366657220746f206e6f6e20455243373231526560008201527f63656976657220696d706c656d656e7465720000000000000000000000000000602082015250565b7f4f776e61626c653a206e6577206f776e657220697320746865207a65726f206160008201527f6464726573730000000000000000000000000000000000000000000000000000602082015250565b7f4552433732313a207472616e736665722066726f6d20696e636f72726563742060008201527f6f776e6572000000000000000000000000000000000000000000000000000000602082015250565b7f4552433732313a20746f6b656e20616c7265616479206d696e74656400000000600082015250565b7f54484952445f574f524400000000000000000000000000000000000000000000600082015250565b7f4552433732313a207472616e7366657220746f20746865207a65726f2061646460008201527f7265737300000000000000000000000000000000000000000000000000000000602082015250565b7f4552433732313a20617070726f766520746f2063616c6c657200000000000000600082015250565b7f222c20226465736372697074696f6e223a20224120686967686c79206163636c60008201527f61696d656420636f6c6c656374696f6e206f6620737175617265732e222c202260208201527f696d616765223a2022646174613a696d6167652f7376672b786d6c3b6261736560408201527f36342c0000000000000000000000000000000000000000000000000000000000606082015250565b7f5345434f4e445f574f5244000000000000000000000000000000000000000000600082015250565b7f4e6f7420656e6f75676820657468657220746f207075726368617365204e465460008201527f732e000000000000000000000000000000000000000000000000000000000000602082015250565b7f4552433732313a206f70657261746f7220717565727920666f72206e6f6e657860008201527f697374656e7420746f6b656e0000000000000000000000000000000000000000602082015250565b7f3c2f746578743e3c2f7376673e00000000000000000000000000000000000000600082015250565b7f4552433732313a20617070726f76652063616c6c6572206973206e6f74206f7760008201527f6e6572206e6f7220617070726f76656420666f7220616c6c0000000000000000602082015250565b7f4552433732313a2062616c616e636520717565727920666f7220746865207a6560008201527f726f206164647265737300000000000000000000000000000000000000000000602082015250565b7f4552433732313a206f776e657220717565727920666f72206e6f6e657869737460008201527f656e7420746f6b656e0000000000000000000000000000000000000000000000602082015250565b7f45524337323155524953746f726167653a2055524920736574206f66206e6f6e60008201527f6578697374656e7420746f6b656e000000000000000000000000000000000000602082015250565b7f227d000000000000000000000000000000000000000000000000000000000000600082015250565b7f4552433732313a206d696e7420746f20746865207a65726f2061646472657373600082015250565b7f4e6f206574686572206c65667420746f20776974686472617700000000000000600082015250565b7f45524337323155524953746f726167653a2055524920717565727920666f722060008201527f6e6f6e6578697374656e7420746f6b656e000000000000000000000000000000602082015250565b7f4552433732313a20617070726f76656420717565727920666f72206e6f6e657860008201527f697374656e7420746f6b656e0000000000000000000000000000000000000000602082015250565b7f4f776e61626c653a2063616c6c6572206973206e6f7420746865206f776e6572600082015250565b7f4552433732314d657461646174613a2055524920717565727920666f72206e6f60008201527f6e6578697374656e7420746f6b656e0000000000000000000000000000000000602082015250565b7f7b226e616d65223a202200000000000000000000000000000000000000000000600082015250565b7f4552433732313a20617070726f76616c20746f2063757272656e74206f776e6560008201527f7200000000000000000000000000000000000000000000000000000000000000602082015250565b7f46495253545f574f524400000000000000000000000000000000000000000000600082015250565b7f646174613a6170706c69636174696f6e2f6a736f6e3b6261736536342c000000600082015250565b50565b7f5472616e73666572206661696c65642e00000000000000000000000000000000600082015250565b7f4552433732313a207472616e736665722063616c6c6572206973206e6f74206f60008201527f776e6572206e6f7220617070726f766564000000000000000000000000000000602082015250565b61443e81613a81565b811461444957600080fd5b50565b61445581613a93565b811461446057600080fd5b50565b61446c81613a9f565b811461447757600080fd5b50565b61448381613aeb565b811461448e57600080fd5b5056fe416e204e465420772f20494420257320686173206265656e206d696e74656420746f2025734142434445464748494a4b4c4d4e4f505152535455565758595a6162636465666768696a6b6c6d6e6f707172737475767778797a303132333435363738392b2fa2646970667358221220b6c37c8fa84cd9d2e70bcee8095f5a99220d31fe485f944310cab1892368e00564736f6c634300080400333c73766720786d6c6e733d27687474703a2f2f7777772e77332e6f72672f323030302f73766727207072657365727665417370656374526174696f3d27784d696e594d696e206d656574272076696577426f783d273020302033353020333530273e3c7374796c653e2e62617365207b2066696c6c3a2077686974653b20666f6e742d66616d696c793a2073657269663b20666f6e742d73697a653a20323470783b207d3c2f7374796c653e3c726563742077696474683d273130302527206865696768743d2731303025272066696c6c3d27626c61636b27202f3e3c7465787420783d273530252720793d273530252720636c6173733d27626173652720646f6d696e616e742d626173656c696e653d276d6964646c652720746578742d616e63686f723d276d6964646c65273e",
  "linkReferences": {},
  "deployedLinkReferences": {}
}