{
  "_format": "hh-sol-artifact-1",
  "contractName": "MyEpicNFT",
  "sourceName": "contracts/MyEpicNFT.sol",
  "abi": [
    {
      "inputs": [],
      "stateMutability": "nonpayable",
      "type": "constructor"
    },
    {
      "anonymous": false,
      "inputs": [
        {
          "indexed": true,
          "internalType": "address",
          "name": "owner",
          "type": "address"
        },
        {
          "indexed": true,
          "internalType": "address",
          "name": "approved",
          "type": "address"
        },
        {
          "indexed": true,
          "internalType": "uint256",
          "name": "tokenId",
          "type": "uint256"
        }
      ],
      "name": "Approval",
      "type": "event"
    },
    {
      "anonymous": false,
      "inputs": [
        {
          "indexed": true,
          "internalType": "address",
          "name": "owner",
          "type": "address"
        },
        {
          "indexed": true,
          "internalType": "address",
          "name": "operator",
          "type": "address"
        },
        {
          "indexed": false,
          "internalType": "bool",
          "name": "approved",
          "type": "bool"
        }
      ],
      "name": "ApprovalForAll",
      "type": "event"
    },
    {
      "anonymous": false,
      "inputs": [
        {
          "indexed": false,
          "internalType": "address",
          "name": "sender",
          "type": "address"
        },
        {
          "indexed": false,
          "internalType": "uint256",
          "name": "tokenId",
          "type": "uint256"
        }
      ],
      "name": "NewEpicNFTMinted",
      "type": "event"
    },
    {
      "anonymous": false,
      "inputs": [
        {
          "indexed": true,
          "internalType": "address",
          "name": "from",
          "type": "address"
        },
        {
          "indexed": true,
          "internalType": "address",
          "name": "to",
          "type": "address"
        },
        {
          "indexed": true,
          "internalType": "uint256",
          "name": "tokenId",
          "type": "uint256"
        }
      ],
      "name": "Transfer",
      "type": "event"
    },
    {
      "inputs": [
        {
          "internalType": "address",
          "name": "to",
          "type": "address"
        },
        {
          "internalType": "uint256",
          "name": "tokenId",
          "type": "uint256"
        }
      ],
      "name": "approve",
      "outputs": [],
      "stateMutability": "nonpayable",
      "type": "function"
    },
    {
      "inputs": [
        {
          "internalType": "address",
          "name": "owner",
          "type": "address"
        }
      ],
      "name": "balanceOf",
      "outputs": [
        {
          "internalType": "uint256",
          "name": "",
          "type": "uint256"
        }
      ],
      "stateMutability": "view",
      "type": "function"
    },
    {
      "inputs": [
        {
          "internalType": "uint256",
          "name": "tokenId",
          "type": "uint256"
        }
      ],
      "name": "getApproved",
      "outputs": [
        {
          "internalType": "address",
          "name": "",
          "type": "address"
        }
      ],
      "stateMutability": "view",
      "type": "function"
    },
    {
      "inputs": [],
      "name": "getLastTokenId",
      "outputs": [
        {
          "internalType": "uint256",
          "name": "",
          "type": "uint256"
        }
      ],
      "stateMutability": "view",
      "type": "function"
    },
    {
      "inputs": [
        {
          "internalType": "address",
          "name": "owner",
          "type": "address"
        },
        {
          "internalType": "address",
          "name": "operator",
          "type": "address"
        }
      ],
      "name": "isApprovedForAll",
      "outputs": [
        {
          "internalType": "bool",
          "name": "",
          "type": "bool"
        }
      ],
      "stateMutability": "view",
      "type": "function"
    },
    {
      "inputs": [],
      "name": "makeAnEpicNFT",
      "outputs": [],
      "stateMutability": "nonpayable",
      "type": "function"
    },
    {
      "inputs": [],
      "name": "name",
      "outputs": [
        {
          "internalType": "string",
          "name": "",
          "type": "string"
        }
      ],
      "stateMutability": "view",
      "type": "function"
    },
    {
      "inputs": [
        {
          "internalType": "uint256",
          "name": "tokenId",
          "type": "uint256"
        }
      ],
      "name": "ownerOf",
      "outputs": [
        {
          "internalType": "address",
          "name": "",
          "type": "address"
        }
      ],
      "stateMutability": "view",
      "type": "function"
    },
    {
      "inputs": [
        {
          "internalType": "uint256",
          "name": "tokenId",
          "type": "uint256"
        }
      ],
      "name": "pickRandomFirstWord",
      "outputs": [
        {
          "internalType": "string",
          "name": "",
          "type": "string"
        }
      ],
      "stateMutability": "view",
      "type": "function"
    },
    {
      "inputs": [
        {
          "internalType": "uint256",
          "name": "tokenId",
          "type": "uint256"
        }
      ],
      "name": "pickRandomSecondWord",
      "outputs": [
        {
          "internalType": "string",
          "name": "",
          "type": "string"
        }
      ],
      "stateMutability": "view",
      "type": "function"
    },
    {
      "inputs": [
        {
          "internalType": "uint256",
          "name": "tokenId",
          "type": "uint256"
        }
      ],
      "name": "pickRandomThirdWord",
      "outputs": [
        {
          "internalType": "string",
          "name": "",
          "type": "string"
        }
      ],
      "stateMutability": "view",
      "type": "function"
    },
    {
      "inputs": [
        {
          "internalType": "address",
          "name": "from",
          "type": "address"
        },
        {
          "internalType": "address",
          "name": "to",
          "type": "address"
        },
        {
          "internalType": "uint256",
          "name": "tokenId",
          "type": "uint256"
        }
      ],
      "name": "safeTransferFrom",
      "outputs": [],
      "stateMutability": "nonpayable",
      "type": "function"
    },
    {
      "inputs": [
        {
          "internalType": "address",
          "name": "from",
          "type": "address"
        },
        {
          "internalType": "address",
          "name": "to",
          "type": "address"
        },
        {
          "internalType": "uint256",
          "name": "tokenId",
          "type": "uint256"
        },
        {
          "internalType": "bytes",
          "name": "_data",
          "type": "bytes"
        }
      ],
      "name": "safeTransferFrom",
      "outputs": [],
      "stateMutability": "nonpayable",
      "type": "function"
    },
    {
      "inputs": [
        {
          "internalType": "address",
          "name": "operator",
          "type": "address"
        },
        {
          "internalType": "bool",
          "name": "approved",
          "type": "bool"
        }
      ],
      "name": "setApprovalForAll",
      "outputs": [],
      "stateMutability": "nonpayable",
      "type": "function"
    },
    {
      "inputs": [
        {
          "internalType": "bytes4",
          "name": "interfaceId",
          "type": "bytes4"
        }
      ],
      "name": "supportsInterface",
      "outputs": [
        {
          "internalType": "bool",
          "name": "",
          "type": "bool"
        }
      ],
      "stateMutability": "view",
      "type": "function"
    },
    {
      "inputs": [],
      "name": "symbol",
      "outputs": [
        {
          "internalType": "string",
          "name": "",
          "type": "string"
        }
      ],
      "stateMutability": "view",
      "type": "function"
    },
    {
      "inputs": [
        {
          "internalType": "uint256",
          "name": "tokenId",
          "type": "uint256"
        }
      ],
      "name": "tokenURI",
      "outputs": [
        {
          "internalType": "string",
          "name": "",
          "type": "string"
        }
      ],
      "stateMutability": "view",
      "type": "function"
    },
    {
      "inputs": [
        {
          "internalType": "address",
          "name": "from",
          "type": "address"
        },
        {
          "internalType": "address",
          "name": "to",
          "type": "address"
        },
        {
          "internalType": "uint256",
          "name": "tokenId",
          "type": "uint256"
        }
      ],
      "name": "transferFrom",
      "outputs": [],
      "stateMutability": "nonpayable",
      "type": "function"
    }
  ],
  "bytecode": "0x60806040526064600860006101000a81548160ff021916908360ff16021790555060405180610160016040528061012f81526020016200479b61012f91396009908051906020019062000054929190620008b0565b506040518061012001604052806040518060400160405280600181526020017f310000000000000000000000000000000000000000000000000000000000000081525081526020016040518060400160405280600181526020017f320000000000000000000000000000000000000000000000000000000000000081525081526020016040518060400160405280600181526020017f330000000000000000000000000000000000000000000000000000000000000081525081526020016040518060400160405280600181526020017f340000000000000000000000000000000000000000000000000000000000000081525081526020016040518060400160405280600181526020017f350000000000000000000000000000000000000000000000000000000000000081525081526020016040518060400160405280600181526020017f360000000000000000000000000000000000000000000000000000000000000081525081526020016040518060400160405280600181526020017f370000000000000000000000000000000000000000000000000000000000000081525081526020016040518060400160405280600181526020017f380000000000000000000000000000000000000000000000000000000000000081525081526020016040518060400160405280600181526020017f3900000000000000000000000000000000000000000000000000000000000000815250815250600a9060096200028492919062000941565b506040518061012001604052806040518060400160405280600181526020017f310000000000000000000000000000000000000000000000000000000000000081525081526020016040518060400160405280600181526020017f320000000000000000000000000000000000000000000000000000000000000081525081526020016040518060400160405280600181526020017f330000000000000000000000000000000000000000000000000000000000000081525081526020016040518060400160405280600181526020017f340000000000000000000000000000000000000000000000000000000000000081525081526020016040518060400160405280600181526020017f350000000000000000000000000000000000000000000000000000000000000081525081526020016040518060400160405280600181526020017f360000000000000000000000000000000000000000000000000000000000000081525081526020016040518060400160405280600181526020017f370000000000000000000000000000000000000000000000000000000000000081525081526020016040518060400160405280600181526020017f380000000000000000000000000000000000000000000000000000000000000081525081526020016040518060400160405280600181526020017f3900000000000000000000000000000000000000000000000000000000000000815250815250600b906009620004b492919062000941565b506040518061012001604052806040518060400160405280600181526020017f310000000000000000000000000000000000000000000000000000000000000081525081526020016040518060400160405280600181526020017f320000000000000000000000000000000000000000000000000000000000000081525081526020016040518060400160405280600181526020017f330000000000000000000000000000000000000000000000000000000000000081525081526020016040518060400160405280600181526020017f340000000000000000000000000000000000000000000000000000000000000081525081526020016040518060400160405280600181526020017f350000000000000000000000000000000000000000000000000000000000000081525081526020016040518060400160405280600181526020017f360000000000000000000000000000000000000000000000000000000000000081525081526020016040518060400160405280600181526020017f370000000000000000000000000000000000000000000000000000000000000081525081526020016040518060400160405280600181526020017f380000000000000000000000000000000000000000000000000000000000000081525081526020016040518060400160405280600181526020017f3900000000000000000000000000000000000000000000000000000000000000815250815250600c906009620006e492919062000941565b50348015620006f257600080fd5b506040518060400160405280600981526020017f5371756172654e465400000000000000000000000000000000000000000000008152506040518060400160405280600681526020017f5351554152450000000000000000000000000000000000000000000000000000815250816000908051906020019062000777929190620008b0565b50806001908051906020019062000790929190620008b0565b505050620007de6040518060400160405280601881526020017f54686973206973206d79204e465420636f6e74726163742e0000000000000000815250620007e460201b620012251760201c565b62000b62565b6200088481604051602401620007fb919062000a76565b6040516020818303038152906040527f41304fac000000000000000000000000000000000000000000000000000000007bffffffffffffffffffffffffffffffffffffffffffffffffffffffff19166020820180517bffffffffffffffffffffffffffffffffffffffffffffffffffffffff83818316178352505050506200088760201b60201c565b50565b60008151905060006a636f6e736f6c652e6c6f679050602083016000808483855afa5050505050565b828054620008be9062000aec565b90600052602060002090601f016020900481019282620008e257600085556200092e565b82601f10620008fd57805160ff19168380011785556200092e565b828001600101855582156200092e579182015b828111156200092d57825182559160200191906001019062000910565b5b5090506200093d9190620009a8565b5090565b82805482825590600052602060002090810192821562000995579160200282015b828111156200099457825182908051906020019062000983929190620008b0565b509160200191906001019062000962565b5b509050620009a49190620009c7565b5090565b5b80821115620009c3576000816000905550600101620009a9565b5090565b5b80821115620009eb5760008181620009e19190620009ef565b50600101620009c8565b5090565b508054620009fd9062000aec565b6000825580601f1062000a11575062000a32565b601f01602090049060005260206000209081019062000a319190620009a8565b5b50565b600062000a428262000a9a565b62000a4e818562000aa5565b935062000a6081856020860162000ab6565b62000a6b8162000b51565b840191505092915050565b6000602082019050818103600083015262000a92818462000a35565b905092915050565b600081519050919050565b600082825260208201905092915050565b60005b8381101562000ad657808201518184015260208101905062000ab9565b8381111562000ae6576000848401525b50505050565b6000600282049050600182168062000b0557607f821691505b6020821081141562000b1c5762000b1b62000b22565b5b50919050565b7f4e487b7100000000000000000000000000000000000000000000000000000000600052602260045260246000fd5b6000601f19601f8301169050919050565b613c298062000b726000396000f3fe608060405234801561001057600080fd5b50600436106101165760003560e01c806383c4c00d116100a2578063b88d4fde11610071578063b88d4fde14610305578063c575757a14610321578063c87b56dd14610351578063de9d132f14610381578063e985e9c51461038b57610116565b806383c4c00d1461027d57806395d89b411461029b578063a22cb465146102b9578063b187301f146102d557610116565b806323b872dd116100e957806323b872dd146101b55780632de38d68146101d157806342842e0e146102015780636352211e1461021d57806370a082311461024d57610116565b806301ffc9a71461011b57806306fdde031461014b578063081812fc14610169578063095ea7b314610199575b600080fd5b610135600480360381019061013091906126ed565b6103bb565b6040516101429190612e11565b60405180910390f35b61015361049d565b6040516101609190612e2c565b60405180910390f35b610183600480360381019061017e919061273f565b61052f565b6040516101909190612d81565b60405180910390f35b6101b360048036038101906101ae91906126b1565b6105b4565b005b6101cf60048036038101906101ca91906125ab565b6106cc565b005b6101eb60048036038101906101e6919061273f565b61072c565b6040516101f89190612e2c565b60405180910390f35b61021b600480360381019061021691906125ab565b6108c8565b005b6102376004803603810190610232919061273f565b6108e8565b6040516102449190612d81565b60405180910390f35b61026760048036038101906102629190612546565b61099a565b60405161027491906130bc565b60405180910390f35b610285610a52565b60405161029291906130bc565b60405180910390f35b6102a3610a68565b6040516102b09190612e2c565b60405180910390f35b6102d360048036038101906102ce9190612675565b610afa565b005b6102ef60048036038101906102ea919061273f565b610b10565b6040516102fc9190612e2c565b60405180910390f35b61031f600480360381019061031a91906125fa565b610c2e565b005b61033b6004803603810190610336919061273f565b610c90565b6040516103489190612e2c565b60405180910390f35b61036b6004803603810190610366919061273f565b610dae565b6040516103789190612e2c565b60405180910390f35b610389610f00565b005b6103a560048036038101906103a0919061256f565b611191565b6040516103b29190612e11565b60405180910390f35b60007f80ac58cd000000000000000000000000000000000000000000000000000000007bffffffffffffffffffffffffffffffffffffffffffffffffffffffff1916827bffffffffffffffffffffffffffffffffffffffffffffffffffffffff1916148061048657507f5b5e139f000000000000000000000000000000000000000000000000000000007bffffffffffffffffffffffffffffffffffffffffffffffffffffffff1916827bffffffffffffffffffffffffffffffffffffffffffffffffffffffff1916145b806104965750610495826112be565b5b9050919050565b6060600080546104ac90613350565b80601f01602080910402602001604051908101604052809291908181526020018280546104d890613350565b80156105255780601f106104fa57610100808354040283529160200191610525565b820191906000526020600020905b81548152906001019060200180831161050857829003601f168201915b5050505050905090565b600061053a82611328565b610579576040517f08c379a00000000000000000000000000000000000000000000000000000000081526004016105709061303c565b60405180910390fd5b6004600083815260200190815260200160002060009054906101000a900473ffffffffffffffffffffffffffffffffffffffff169050919050565b60006105bf826108e8565b90508073ffffffffffffffffffffffffffffffffffffffff168373ffffffffffffffffffffffffffffffffffffffff161415610630576040517f08c379a00000000000000000000000000000000000000000000000000000000081526004016106279061307c565b60405180910390fd5b8073ffffffffffffffffffffffffffffffffffffffff1661064f611394565b73ffffffffffffffffffffffffffffffffffffffff16148061067e575061067d81610678611394565b611191565b5b6106bd576040517f08c379a00000000000000000000000000000000000000000000000000000000081526004016106b490612f7c565b60405180910390fd5b6106c7838361139c565b505050565b6106dd6106d7611394565b82611455565b61071c576040517f08c379a00000000000000000000000000000000000000000000000000000000081526004016107139061309c565b60405180910390fd5b610727838383611533565b505050565b6060600061076061073c8461179a565b60405160200161074c9190612d3d565b604051602081830303815290604052611947565b90506107a16040518060400160405280600d81526020017f72616e64202d20736565643a20000000000000000000000000000000000000008152508261197a565b600a80549050816107b291906133fc565b90506107f36040518060400160405280601381526020017f72616e64202d20666972737420776f72643a20000000000000000000000000008152508261197a565b600a818154811061082d577f4e487b7100000000000000000000000000000000000000000000000000000000600052603260045260246000fd5b90600052602060002001805461084290613350565b80601f016020809104026020016040519081016040528092919081815260200182805461086e90613350565b80156108bb5780601f10610890576101008083540402835291602001916108bb565b820191906000526020600020905b81548152906001019060200180831161089e57829003601f168201915b5050505050915050919050565b6108e383838360405180602001604052806000815250610c2e565b505050565b6000806002600084815260200190815260200160002060009054906101000a900473ffffffffffffffffffffffffffffffffffffffff169050600073ffffffffffffffffffffffffffffffffffffffff168173ffffffffffffffffffffffffffffffffffffffff161415610991576040517f08c379a000000000000000000000000000000000000000000000000000000000815260040161098890612fbc565b60405180910390fd5b80915050919050565b60008073ffffffffffffffffffffffffffffffffffffffff168273ffffffffffffffffffffffffffffffffffffffff161415610a0b576040517f08c379a0000000000000000000000000000000000000000000000000000000008152600401610a0290612f9c565b60405180910390fd5b600360008373ffffffffffffffffffffffffffffffffffffffff1673ffffffffffffffffffffffffffffffffffffffff168152602001908152602001600020549050919050565b600080610a5f6007611a16565b90508091505090565b606060018054610a7790613350565b80601f0160208091040260200160405190810160405280929190818152602001828054610aa390613350565b8015610af05780601f10610ac557610100808354040283529160200191610af0565b820191906000526020600020905b815481529060010190602001808311610ad357829003601f168201915b5050505050905090565b610b0c610b05611394565b8383611a24565b5050565b60606000610b44610b208461179a565b604051602001610b309190612cd6565b604051602081830303815290604052611947565b9050600b8054905081610b5791906133fc565b9050600b8181548110610b93577f4e487b7100000000000000000000000000000000000000000000000000000000600052603260045260246000fd5b906000526020600020018054610ba890613350565b80601f0160208091040260200160405190810160405280929190818152602001828054610bd490613350565b8015610c215780601f10610bf657610100808354040283529160200191610c21565b820191906000526020600020905b815481529060010190602001808311610c0457829003601f168201915b5050505050915050919050565b610c3f610c39611394565b83611455565b610c7e576040517f08c379a0000000000000000000000000000000000000000000000000000000008152600401610c759061309c565b60405180910390fd5b610c8a84848484611b91565b50505050565b60606000610cc4610ca08461179a565b604051602001610cb09190612cb4565b604051602081830303815290604052611947565b9050600c8054905081610cd791906133fc565b9050600c8181548110610d13577f4e487b7100000000000000000000000000000000000000000000000000000000600052603260045260246000fd5b906000526020600020018054610d2890613350565b80601f0160208091040260200160405190810160405280929190818152602001828054610d5490613350565b8015610da15780601f10610d7657610100808354040283529160200191610da1565b820191906000526020600020905b815481529060010190602001808311610d8457829003601f168201915b5050505050915050919050565b6060610db982611328565b610df8576040517f08c379a0000000000000000000000000000000000000000000000000000000008152600401610def9061301c565b60405180910390fd5b6000600660008481526020019081526020016000208054610e1890613350565b80601f0160208091040260200160405190810160405280929190818152602001828054610e4490613350565b8015610e915780601f10610e6657610100808354040283529160200191610e91565b820191906000526020600020905b815481529060010190602001808311610e7457829003601f168201915b505050505090506000610ea2611bed565b9050600081511415610eb8578192505050610efb565b600082511115610eed578082604051602001610ed5929190612c16565b60405160208183030381529060405292505050610efb565b610ef684611c04565b925050505b919050565b6000610f0c6007611a16565b905080600860009054906101000a900460ff1660ff161015610f2e575061118f565b6000610f398261072c565b90506000610f4683610b10565b90506000610f5384610c90565b90506000838383604051602001610f6c93929190612c3a565b604051602081830303815290604052905060006009858585604051602001610f979493929190612c6b565b6040516020818303038152906040529050610fe66040518060400160405280601581526020017f0a2d2d2d2d2d205356472064617461202d2d2d2d2d0000000000000000000000815250611225565b610fef81611225565b61102d6040518060400160405280601581526020017f2d2d2d2d2d2d2d2d2d2d2d2d2d2d2d2d2d2d2d2d0a0000000000000000000000815250611225565b60006110618361103c84611cab565b60405160200161104d929190612cf8565b604051602081830303815290604052611cab565b90506000816040516020016110769190612d5f565b60405160208183030381529060405290506110c56040518060400160405280601581526020017f0a2d2d2d2d2d20546f6b656e20555249202d2d2d2d0000000000000000000000815250611225565b6110ce81611225565b61110c6040518060400160405280601581526020017f2d2d2d2d2d2d2d2d2d2d2d2d2d2d2d2d2d2d2d2d0a0000000000000000000000815250611225565b6111163389611e69565b6111208882611e87565b611143604051806060016040528060258152602001613b8f602591398933611efb565b61114d6007611f9a565b7febb98688741ffa4c7589bf325de30cf7becb63de567842e1ccdb6cb949fdc82c338960405161117e929190612de8565b60405180910390a150505050505050505b565b6000600560008473ffffffffffffffffffffffffffffffffffffffff1673ffffffffffffffffffffffffffffffffffffffff16815260200190815260200160002060008373ffffffffffffffffffffffffffffffffffffffff1673ffffffffffffffffffffffffffffffffffffffff16815260200190815260200160002060009054906101000a900460ff16905092915050565b6112bb816040516024016112399190612e2c565b6040516020818303038152906040527f41304fac000000000000000000000000000000000000000000000000000000007bffffffffffffffffffffffffffffffffffffffffffffffffffffffff19166020820180517bffffffffffffffffffffffffffffffffffffffffffffffffffffffff8381831617835250505050611fb0565b50565b60007f01ffc9a7000000000000000000000000000000000000000000000000000000007bffffffffffffffffffffffffffffffffffffffffffffffffffffffff1916827bffffffffffffffffffffffffffffffffffffffffffffffffffffffff1916149050919050565b60008073ffffffffffffffffffffffffffffffffffffffff166002600084815260200190815260200160002060009054906101000a900473ffffffffffffffffffffffffffffffffffffffff1673ffffffffffffffffffffffffffffffffffffffff1614159050919050565b600033905090565b816004600083815260200190815260200160002060006101000a81548173ffffffffffffffffffffffffffffffffffffffff021916908373ffffffffffffffffffffffffffffffffffffffff160217905550808273ffffffffffffffffffffffffffffffffffffffff1661140f836108e8565b73ffffffffffffffffffffffffffffffffffffffff167f8c5be1e5ebec7d5bd14f71427d1e84f3dd0314c0f7b2291e5b200ac8c7c3b92560405160405180910390a45050565b600061146082611328565b61149f576040517f08c379a000000000000000000000000000000000000000000000000000000000815260040161149690612f5c565b60405180910390fd5b60006114aa836108e8565b90508073ffffffffffffffffffffffffffffffffffffffff168473ffffffffffffffffffffffffffffffffffffffff16148061151957508373ffffffffffffffffffffffffffffffffffffffff166115018461052f565b73ffffffffffffffffffffffffffffffffffffffff16145b8061152a57506115298185611191565b5b91505092915050565b8273ffffffffffffffffffffffffffffffffffffffff16611553826108e8565b73ffffffffffffffffffffffffffffffffffffffff16146115a9576040517f08c379a00000000000000000000000000000000000000000000000000000000081526004016115a090612edc565b60405180910390fd5b600073ffffffffffffffffffffffffffffffffffffffff168273ffffffffffffffffffffffffffffffffffffffff161415611619576040517f08c379a000000000000000000000000000000000000000000000000000000000815260040161161090612f1c565b60405180910390fd5b611624838383611fd9565b61162f60008261139c565b6001600360008573ffffffffffffffffffffffffffffffffffffffff1673ffffffffffffffffffffffffffffffffffffffff168152602001908152602001600020600082825461167f9190613266565b925050819055506001600360008473ffffffffffffffffffffffffffffffffffffffff1673ffffffffffffffffffffffffffffffffffffffff16815260200190815260200160002060008282546116d69190613185565b92505081905550816002600083815260200190815260200160002060006101000a81548173ffffffffffffffffffffffffffffffffffffffff021916908373ffffffffffffffffffffffffffffffffffffffff160217905550808273ffffffffffffffffffffffffffffffffffffffff168473ffffffffffffffffffffffffffffffffffffffff167fddf252ad1be2c89b69c2b068fc378daa952ba7f163c4a11628f55a4df523b3ef60405160405180910390a4611795838383611fde565b505050565b606060008214156117e2576040518060400160405280600181526020017f30000000000000000000000000000000000000000000000000000000000000008152509050611942565b600082905060005b600082146118145780806117fd906133b3565b915050600a8261180d91906131db565b91506117ea565b60008167ffffffffffffffff811115611856577f4e487b7100000000000000000000000000000000000000000000000000000000600052604160045260246000fd5b6040519080825280601f01601f1916602001820160405280156118885781602001600182028036833780820191505090505b5090505b6000851461193b576001826118a19190613266565b9150600a856118b091906133fc565b60306118bc9190613185565b60f81b8183815181106118f8577f4e487b7100000000000000000000000000000000000000000000000000000000600052603260045260246000fd5b60200101907effffffffffffffffffffffffffffffffffffffffffffffffffffffffffffff1916908160001a905350600a8561193491906131db565b945061188c565b8093505050505b919050565b60008160405160200161195a9190612bff565b6040516020818303038152906040528051906020012060001c9050919050565b611a128282604051602401611990929190612e4e565b6040516020818303038152906040527f9710a9d0000000000000000000000000000000000000000000000000000000007bffffffffffffffffffffffffffffffffffffffffffffffffffffffff19166020820180517bffffffffffffffffffffffffffffffffffffffffffffffffffffffff8381831617835250505050611fb0565b5050565b600081600001549050919050565b8173ffffffffffffffffffffffffffffffffffffffff168373ffffffffffffffffffffffffffffffffffffffff161415611a93576040517f08c379a0000000000000000000000000000000000000000000000000000000008152600401611a8a90612f3c565b60405180910390fd5b80600560008573ffffffffffffffffffffffffffffffffffffffff1673ffffffffffffffffffffffffffffffffffffffff16815260200190815260200160002060008473ffffffffffffffffffffffffffffffffffffffff1673ffffffffffffffffffffffffffffffffffffffff16815260200190815260200160002060006101000a81548160ff0219169083151502179055508173ffffffffffffffffffffffffffffffffffffffff168373ffffffffffffffffffffffffffffffffffffffff167f17307eab39ab6107e8899845ad3d59bd9653f200f220920489ca2b5937696c3183604051611b849190612e11565b60405180910390a3505050565b611b9c848484611533565b611ba884848484611fe3565b611be7576040517f08c379a0000000000000000000000000000000000000000000000000000000008152600401611bde90612ebc565b60405180910390fd5b50505050565b606060405180602001604052806000815250905090565b6060611c0f82611328565b611c4e576040517f08c379a0000000000000000000000000000000000000000000000000000000008152600401611c459061305c565b60405180910390fd5b6000611c58611bed565b90506000815111611c785760405180602001604052806000815250611ca3565b80611c828461179a565b604051602001611c93929190612c16565b6040516020818303038152906040525b915050919050565b60606000825190506000811415611cd45760405180602001604052806000815250915050611e64565b60006003600283611ce59190613185565b611cef91906131db565b6004611cfb919061320c565b90506000602082611d0c9190613185565b67ffffffffffffffff811115611d4b577f4e487b7100000000000000000000000000000000000000000000000000000000600052604160045260246000fd5b6040519080825280601f01601f191660200182016040528015611d7d5781602001600182028036833780820191505090505b5090506000604051806060016040528060408152602001613bb4604091399050600181016020830160005b86811015611e215760038101905062ffffff818a015116603f8160121c168401518060081b905060ff603f83600c1c1686015116810190508060081b905060ff603f8360061c1686015116810190508060081b905060ff603f831686015116810190508060e01b90508084526004840193505050611da8565b506003860660018114611e3b5760028114611e4b57611e56565b613d3d60f01b6002830352611e56565b603d60f81b60018303525b508484525050819450505050505b919050565b611e8382826040518060200160405280600081525061217a565b5050565b611e9082611328565b611ecf576040517f08c379a0000000000000000000000000000000000000000000000000000000008152600401611ec690612fdc565b60405180910390fd5b80600660008481526020019081526020016000209080519060200190611ef69291906123d2565b505050565b611f95838383604051602401611f1393929190612e7e565b6040516020818303038152906040527fe3849f79000000000000000000000000000000000000000000000000000000007bffffffffffffffffffffffffffffffffffffffffffffffffffffffff19166020820180517bffffffffffffffffffffffffffffffffffffffffffffffffffffffff8381831617835250505050611fb0565b505050565b6001816000016000828254019250508190555050565b60008151905060006a636f6e736f6c652e6c6f679050602083016000808483855afa5050505050565b505050565b505050565b60006120048473ffffffffffffffffffffffffffffffffffffffff166121d5565b1561216d578373ffffffffffffffffffffffffffffffffffffffff1663150b7a0261202d611394565b8786866040518563ffffffff1660e01b815260040161204f9493929190612d9c565b602060405180830381600087803b15801561206957600080fd5b505af192505050801561209a57506040513d601f19601f820116820180604052508101906120979190612716565b60015b61211d573d80600081146120ca576040519150601f19603f3d011682016040523d82523d6000602084013e6120cf565b606091505b50600081511415612115576040517f08c379a000000000000000000000000000000000000000000000000000000000815260040161210c90612ebc565b60405180910390fd5b805181602001fd5b63150b7a0260e01b7bffffffffffffffffffffffffffffffffffffffffffffffffffffffff1916817bffffffffffffffffffffffffffffffffffffffffffffffffffffffff191614915050612172565b600190505b949350505050565b61218483836121f8565b6121916000848484611fe3565b6121d0576040517f08c379a00000000000000000000000000000000000000000000000000000000081526004016121c790612ebc565b60405180910390fd5b505050565b6000808273ffffffffffffffffffffffffffffffffffffffff163b119050919050565b600073ffffffffffffffffffffffffffffffffffffffff168273ffffffffffffffffffffffffffffffffffffffff161415612268576040517f08c379a000000000000000000000000000000000000000000000000000000000815260040161225f90612ffc565b60405180910390fd5b61227181611328565b156122b1576040517f08c379a00000000000000000000000000000000000000000000000000000000081526004016122a890612efc565b60405180910390fd5b6122bd60008383611fd9565b6001600360008473ffffffffffffffffffffffffffffffffffffffff1673ffffffffffffffffffffffffffffffffffffffff168152602001908152602001600020600082825461230d9190613185565b92505081905550816002600083815260200190815260200160002060006101000a81548173ffffffffffffffffffffffffffffffffffffffff021916908373ffffffffffffffffffffffffffffffffffffffff160217905550808273ffffffffffffffffffffffffffffffffffffffff16600073ffffffffffffffffffffffffffffffffffffffff167fddf252ad1be2c89b69c2b068fc378daa952ba7f163c4a11628f55a4df523b3ef60405160405180910390a46123ce60008383611fde565b5050565b8280546123de90613350565b90600052602060002090601f0160209004810192826124005760008555612447565b82601f1061241957805160ff1916838001178555612447565b82800160010185558215612447579182015b8281111561244657825182559160200191906001019061242b565b5b5090506124549190612458565b5090565b5b80821115612471576000816000905550600101612459565b5090565b6000612488612483846130fc565b6130d7565b9050828152602081018484840111156124a057600080fd5b6124ab84828561330e565b509392505050565b6000813590506124c281613b32565b92915050565b6000813590506124d781613b49565b92915050565b6000813590506124ec81613b60565b92915050565b60008151905061250181613b60565b92915050565b600082601f83011261251857600080fd5b8135612528848260208601612475565b91505092915050565b60008135905061254081613b77565b92915050565b60006020828403121561255857600080fd5b6000612566848285016124b3565b91505092915050565b6000806040838503121561258257600080fd5b6000612590858286016124b3565b92505060206125a1858286016124b3565b9150509250929050565b6000806000606084860312156125c057600080fd5b60006125ce868287016124b3565b93505060206125df868287016124b3565b92505060406125f086828701612531565b9150509250925092565b6000806000806080858703121561261057600080fd5b600061261e878288016124b3565b945050602061262f878288016124b3565b935050604061264087828801612531565b925050606085013567ffffffffffffffff81111561265d57600080fd5b61266987828801612507565b91505092959194509250565b6000806040838503121561268857600080fd5b6000612696858286016124b3565b92505060206126a7858286016124c8565b9150509250929050565b600080604083850312156126c457600080fd5b60006126d2858286016124b3565b92505060206126e385828601612531565b9150509250929050565b6000602082840312156126ff57600080fd5b600061270d848285016124dd565b91505092915050565b60006020828403121561272857600080fd5b6000612736848285016124f2565b91505092915050565b60006020828403121561275157600080fd5b600061275f84828501612531565b91505092915050565b6127718161329a565b82525050565b612780816132ac565b82525050565b600061279182613142565b61279b8185613158565b93506127ab81856020860161331d565b6127b4816134e9565b840191505092915050565b60006127ca8261314d565b6127d48185613169565b93506127e481856020860161331d565b6127ed816134e9565b840191505092915050565b60006128038261314d565b61280d818561317a565b935061281d81856020860161331d565b80840191505092915050565b6000815461283681613350565b612840818661317a565b9450600182166000811461285b576001811461286c5761289f565b60ff1983168652818601935061289f565b6128758561312d565b60005b8381101561289757815481890152600182019150602081019050612878565b838801955050505b50505092915050565b60006128b5603283613169565b91506128c0826134fa565b604082019050919050565b60006128d8602583613169565b91506128e382613549565b604082019050919050565b60006128fb601c83613169565b915061290682613598565b602082019050919050565b600061291e600a8361317a565b9150612929826135c1565b600a82019050919050565b6000612941602483613169565b915061294c826135ea565b604082019050919050565b6000612964601983613169565b915061296f82613639565b602082019050919050565b600061298760638361317a565b915061299282613662565b606382019050919050565b60006129aa600b8361317a565b91506129b5826136fd565b600b82019050919050565b60006129cd602c83613169565b91506129d882613726565b604082019050919050565b60006129f0600d8361317a565b91506129fb82613775565b600d82019050919050565b6000612a13603883613169565b9150612a1e8261379e565b604082019050919050565b6000612a36602a83613169565b9150612a41826137ed565b604082019050919050565b6000612a59602983613169565b9150612a648261383c565b604082019050919050565b6000612a7c602e83613169565b9150612a878261388b565b604082019050919050565b6000612a9f60028361317a565b9150612aaa826138da565b600282019050919050565b6000612ac2602083613169565b9150612acd82613903565b602082019050919050565b6000612ae5603183613169565b9150612af08261392c565b604082019050919050565b6000612b08602c83613169565b9150612b138261397b565b604082019050919050565b6000612b2b602f83613169565b9150612b36826139ca565b604082019050919050565b6000612b4e600a8361317a565b9150612b5982613a19565b600a82019050919050565b6000612b71602183613169565b9150612b7c82613a42565b604082019050919050565b6000612b94600a8361317a565b9150612b9f82613a91565b600a82019050919050565b6000612bb7601d8361317a565b9150612bc282613aba565b601d82019050919050565b6000612bda603183613169565b9150612be582613ae3565b604082019050919050565b612bf981613304565b82525050565b6000612c0b82846127f8565b915081905092915050565b6000612c2282856127f8565b9150612c2e82846127f8565b91508190509392505050565b6000612c4682866127f8565b9150612c5282856127f8565b9150612c5e82846127f8565b9150819050949350505050565b6000612c778287612829565b9150612c8382866127f8565b9150612c8f82856127f8565b9150612c9b82846127f8565b9150612ca6826129e3565b915081905095945050505050565b6000612cbf82612911565b9150612ccb82846127f8565b915081905092915050565b6000612ce18261299d565b9150612ced82846127f8565b915081905092915050565b6000612d0382612b41565b9150612d0f82856127f8565b9150612d1a8261297a565b9150612d2682846127f8565b9150612d3182612a92565b91508190509392505050565b6000612d4882612b87565b9150612d5482846127f8565b915081905092915050565b6000612d6a82612baa565b9150612d7682846127f8565b915081905092915050565b6000602082019050612d966000830184612768565b92915050565b6000608082019050612db16000830187612768565b612dbe6020830186612768565b612dcb6040830185612bf0565b8181036060830152612ddd8184612786565b905095945050505050565b6000604082019050612dfd6000830185612768565b612e0a6020830184612bf0565b9392505050565b6000602082019050612e266000830184612777565b92915050565b60006020820190508181036000830152612e4681846127bf565b905092915050565b60006040820190508181036000830152612e6881856127bf565b9050612e776020830184612bf0565b9392505050565b60006060820190508181036000830152612e9881866127bf565b9050612ea76020830185612bf0565b612eb46040830184612768565b949350505050565b60006020820190508181036000830152612ed5816128a8565b9050919050565b60006020820190508181036000830152612ef5816128cb565b9050919050565b60006020820190508181036000830152612f15816128ee565b9050919050565b60006020820190508181036000830152612f3581612934565b9050919050565b60006020820190508181036000830152612f5581612957565b9050919050565b60006020820190508181036000830152612f75816129c0565b9050919050565b60006020820190508181036000830152612f9581612a06565b9050919050565b60006020820190508181036000830152612fb581612a29565b9050919050565b60006020820190508181036000830152612fd581612a4c565b9050919050565b60006020820190508181036000830152612ff581612a6f565b9050919050565b6000602082019050818103600083015261301581612ab5565b9050919050565b6000602082019050818103600083015261303581612ad8565b9050919050565b6000602082019050818103600083015261305581612afb565b9050919050565b6000602082019050818103600083015261307581612b1e565b9050919050565b6000602082019050818103600083015261309581612b64565b9050919050565b600060208201905081810360008301526130b581612bcd565b9050919050565b60006020820190506130d16000830184612bf0565b92915050565b60006130e16130f2565b90506130ed8282613382565b919050565b6000604051905090565b600067ffffffffffffffff821115613117576131166134ba565b5b613120826134e9565b9050602081019050919050565b60008190508160005260206000209050919050565b600081519050919050565b600081519050919050565b600082825260208201905092915050565b600082825260208201905092915050565b600081905092915050565b600061319082613304565b915061319b83613304565b9250827fffffffffffffffffffffffffffffffffffffffffffffffffffffffffffffffff038211156131d0576131cf61342d565b5b828201905092915050565b60006131e682613304565b91506131f183613304565b9250826132015761320061345c565b5b828204905092915050565b600061321782613304565b915061322283613304565b9250817fffffffffffffffffffffffffffffffffffffffffffffffffffffffffffffffff048311821515161561325b5761325a61342d565b5b828202905092915050565b600061327182613304565b915061327c83613304565b92508282101561328f5761328e61342d565b5b828203905092915050565b60006132a5826132e4565b9050919050565b60008115159050919050565b60007fffffffff0000000000000000000000000000000000000000000000000000000082169050919050565b600073ffffffffffffffffffffffffffffffffffffffff82169050919050565b6000819050919050565b82818337600083830152505050565b60005b8381101561333b578082015181840152602081019050613320565b8381111561334a576000848401525b50505050565b6000600282049050600182168061336857607f821691505b6020821081141561337c5761337b61348b565b5b50919050565b61338b826134e9565b810181811067ffffffffffffffff821117156133aa576133a96134ba565b5b80604052505050565b60006133be82613304565b91507fffffffffffffffffffffffffffffffffffffffffffffffffffffffffffffffff8214156133f1576133f061342d565b5b600182019050919050565b600061340782613304565b915061341283613304565b9250826134225761342161345c565b5b828206905092915050565b7f4e487b7100000000000000000000000000000000000000000000000000000000600052601160045260246000fd5b7f4e487b7100000000000000000000000000000000000000000000000000000000600052601260045260246000fd5b7f4e487b7100000000000000000000000000000000000000000000000000000000600052602260045260246000fd5b7f4e487b7100000000000000000000000000000000000000000000000000000000600052604160045260246000fd5b6000601f19601f8301169050919050565b7f4552433732313a207472616e7366657220746f206e6f6e20455243373231526560008201527f63656976657220696d706c656d656e7465720000000000000000000000000000602082015250565b7f4552433732313a207472616e736665722066726f6d20696e636f72726563742060008201527f6f776e6572000000000000000000000000000000000000000000000000000000602082015250565b7f4552433732313a20746f6b656e20616c7265616479206d696e74656400000000600082015250565b7f54484952445f574f524400000000000000000000000000000000000000000000600082015250565b7f4552433732313a207472616e7366657220746f20746865207a65726f2061646460008201527f7265737300000000000000000000000000000000000000000000000000000000602082015250565b7f4552433732313a20617070726f766520746f2063616c6c657200000000000000600082015250565b7f222c20226465736372697074696f6e223a20224120686967686c79206163636c60008201527f61696d656420636f6c6c656374696f6e206f6620737175617265732e222c202260208201527f696d616765223a2022646174613a696d6167652f7376672b786d6c3b6261736560408201527f36342c0000000000000000000000000000000000000000000000000000000000606082015250565b7f5345434f4e445f574f5244000000000000000000000000000000000000000000600082015250565b7f4552433732313a206f70657261746f7220717565727920666f72206e6f6e657860008201527f697374656e7420746f6b656e0000000000000000000000000000000000000000602082015250565b7f3c2f746578743e3c2f7376673e00000000000000000000000000000000000000600082015250565b7f4552433732313a20617070726f76652063616c6c6572206973206e6f74206f7760008201527f6e6572206e6f7220617070726f76656420666f7220616c6c0000000000000000602082015250565b7f4552433732313a2062616c616e636520717565727920666f7220746865207a6560008201527f726f206164647265737300000000000000000000000000000000000000000000602082015250565b7f4552433732313a206f776e657220717565727920666f72206e6f6e657869737460008201527f656e7420746f6b656e0000000000000000000000000000000000000000000000602082015250565b7f45524337323155524953746f726167653a2055524920736574206f66206e6f6e60008201527f6578697374656e7420746f6b656e000000000000000000000000000000000000602082015250565b7f227d000000000000000000000000000000000000000000000000000000000000600082015250565b7f4552433732313a206d696e7420746f20746865207a65726f2061646472657373600082015250565b7f45524337323155524953746f726167653a2055524920717565727920666f722060008201527f6e6f6e6578697374656e7420746f6b656e000000000000000000000000000000602082015250565b7f4552433732313a20617070726f76656420717565727920666f72206e6f6e657860008201527f697374656e7420746f6b656e0000000000000000000000000000000000000000602082015250565b7f4552433732314d657461646174613a2055524920717565727920666f72206e6f60008201527f6e6578697374656e7420746f6b656e0000000000000000000000000000000000602082015250565b7f7b226e616d65223a202200000000000000000000000000000000000000000000600082015250565b7f4552433732313a20617070726f76616c20746f2063757272656e74206f776e6560008201527f7200000000000000000000000000000000000000000000000000000000000000602082015250565b7f46495253545f574f524400000000000000000000000000000000000000000000600082015250565b7f646174613a6170706c69636174696f6e2f6a736f6e3b6261736536342c000000600082015250565b7f4552433732313a207472616e736665722063616c6c6572206973206e6f74206f60008201527f776e6572206e6f7220617070726f766564000000000000000000000000000000602082015250565b613b3b8161329a565b8114613b4657600080fd5b50565b613b52816132ac565b8114613b5d57600080fd5b50565b613b69816132b8565b8114613b7457600080fd5b50565b613b8081613304565b8114613b8b57600080fd5b5056fe416e204e465420772f20494420257320686173206265656e206d696e74656420746f2025734142434445464748494a4b4c4d4e4f505152535455565758595a6162636465666768696a6b6c6d6e6f707172737475767778797a303132333435363738392b2fa2646970667358221220883114792f7bdc4abf1fc736431c15c43b148f58479a1c86dafba9c1a3c2b79664736f6c634300080400333c73766720786d6c6e733d27687474703a2f2f7777772e77332e6f72672f323030302f73766727207072657365727665417370656374526174696f3d27784d696e594d696e206d656574272076696577426f783d273020302033353020333530273e3c7374796c653e2e62617365207b2066696c6c3a2077686974653b20666f6e742d66616d696c793a2073657269663b20666f6e742d73697a653a20323470783b207d3c2f7374796c653e3c726563742077696474683d273130302527206865696768743d2731303025272066696c6c3d27626c61636b27202f3e3c7465787420783d273530252720793d273530252720636c6173733d27626173652720646f6d696e616e742d626173656c696e653d276d6964646c652720746578742d616e63686f723d276d6964646c65273e",
  "linkReferences": {},
  "deployedLinkReferences": {}
}