{
  "_format": "hh-sol-artifact-1",
  "contractName": "MyEpicNFT",
  "sourceName": "contracts/MyEpicNFT.sol",
  "abi": [
    {
      "inputs": [],
      "stateMutability": "payable",
      "type": "constructor"
    },
    {
      "anonymous": false,
      "inputs": [
        {
          "indexed": true,
          "internalType": "address",
          "name": "owner",
          "type": "address"
        },
        {
          "indexed": true,
          "internalType": "address",
          "name": "approved",
          "type": "address"
        },
        {
          "indexed": true,
          "internalType": "uint256",
          "name": "tokenId",
          "type": "uint256"
        }
      ],
      "name": "Approval",
      "type": "event"
    },
    {
      "anonymous": false,
      "inputs": [
        {
          "indexed": true,
          "internalType": "address",
          "name": "owner",
          "type": "address"
        },
        {
          "indexed": true,
          "internalType": "address",
          "name": "operator",
          "type": "address"
        },
        {
          "indexed": false,
          "internalType": "bool",
          "name": "approved",
          "type": "bool"
        }
      ],
      "name": "ApprovalForAll",
      "type": "event"
    },
    {
      "anonymous": false,
      "inputs": [
        {
          "indexed": false,
          "internalType": "address",
          "name": "sender",
          "type": "address"
        },
        {
          "indexed": false,
          "internalType": "uint256",
          "name": "tokenId",
          "type": "uint256"
        }
      ],
      "name": "NewEpicNFTMinted",
      "type": "event"
    },
    {
      "anonymous": false,
      "inputs": [
        {
          "indexed": true,
          "internalType": "address",
          "name": "previousOwner",
          "type": "address"
        },
        {
          "indexed": true,
          "internalType": "address",
          "name": "newOwner",
          "type": "address"
        }
      ],
      "name": "OwnershipTransferred",
      "type": "event"
    },
    {
      "anonymous": false,
      "inputs": [
        {
          "indexed": true,
          "internalType": "address",
          "name": "from",
          "type": "address"
        },
        {
          "indexed": true,
          "internalType": "address",
          "name": "to",
          "type": "address"
        },
        {
          "indexed": true,
          "internalType": "uint256",
          "name": "tokenId",
          "type": "uint256"
        }
      ],
      "name": "Transfer",
      "type": "event"
    },
    {
      "inputs": [],
      "name": "MAX_PER_MINT",
      "outputs": [
        {
          "internalType": "uint256",
          "name": "",
          "type": "uint256"
        }
      ],
      "stateMutability": "view",
      "type": "function"
    },
    {
      "inputs": [],
      "name": "MAX_SUPPLY",
      "outputs": [
        {
          "internalType": "uint256",
          "name": "",
          "type": "uint256"
        }
      ],
      "stateMutability": "view",
      "type": "function"
    },
    {
      "inputs": [],
      "name": "PRICE",
      "outputs": [
        {
          "internalType": "uint256",
          "name": "",
          "type": "uint256"
        }
      ],
      "stateMutability": "view",
      "type": "function"
    },
    {
      "inputs": [
        {
          "internalType": "address",
          "name": "to",
          "type": "address"
        },
        {
          "internalType": "uint256",
          "name": "tokenId",
          "type": "uint256"
        }
      ],
      "name": "approve",
      "outputs": [],
      "stateMutability": "nonpayable",
      "type": "function"
    },
    {
      "inputs": [
        {
          "internalType": "address",
          "name": "owner",
          "type": "address"
        }
      ],
      "name": "balanceOf",
      "outputs": [
        {
          "internalType": "uint256",
          "name": "",
          "type": "uint256"
        }
      ],
      "stateMutability": "view",
      "type": "function"
    },
    {
      "inputs": [],
      "name": "baseSvg",
      "outputs": [
        {
          "internalType": "string",
          "name": "",
          "type": "string"
        }
      ],
      "stateMutability": "view",
      "type": "function"
    },
    {
      "inputs": [
        {
          "internalType": "uint256",
          "name": "tokenId",
          "type": "uint256"
        }
      ],
      "name": "getApproved",
      "outputs": [
        {
          "internalType": "address",
          "name": "",
          "type": "address"
        }
      ],
      "stateMutability": "view",
      "type": "function"
    },
    {
      "inputs": [],
      "name": "getLastTokenId",
      "outputs": [
        {
          "internalType": "uint256",
          "name": "",
          "type": "uint256"
        }
      ],
      "stateMutability": "view",
      "type": "function"
    },
    {
      "inputs": [
        {
          "internalType": "address",
          "name": "owner",
          "type": "address"
        },
        {
          "internalType": "address",
          "name": "operator",
          "type": "address"
        }
      ],
      "name": "isApprovedForAll",
      "outputs": [
        {
          "internalType": "bool",
          "name": "",
          "type": "bool"
        }
      ],
      "stateMutability": "view",
      "type": "function"
    },
    {
      "inputs": [],
      "name": "makeAnEpicNFT",
      "outputs": [],
      "stateMutability": "payable",
      "type": "function"
    },
    {
      "inputs": [],
      "name": "name",
      "outputs": [
        {
          "internalType": "string",
          "name": "",
          "type": "string"
        }
      ],
      "stateMutability": "view",
      "type": "function"
    },
    {
      "inputs": [],
      "name": "owner",
      "outputs": [
        {
          "internalType": "address",
          "name": "",
          "type": "address"
        }
      ],
      "stateMutability": "view",
      "type": "function"
    },
    {
      "inputs": [
        {
          "internalType": "uint256",
          "name": "tokenId",
          "type": "uint256"
        }
      ],
      "name": "ownerOf",
      "outputs": [
        {
          "internalType": "address",
          "name": "",
          "type": "address"
        }
      ],
      "stateMutability": "view",
      "type": "function"
    },
    {
      "inputs": [
        {
          "internalType": "uint256",
          "name": "tokenId",
          "type": "uint256"
        }
      ],
      "name": "pickRandomFirstWord",
      "outputs": [
        {
          "internalType": "string",
          "name": "",
          "type": "string"
        }
      ],
      "stateMutability": "view",
      "type": "function"
    },
    {
      "inputs": [
        {
          "internalType": "uint256",
          "name": "tokenId",
          "type": "uint256"
        }
      ],
      "name": "pickRandomSecondWord",
      "outputs": [
        {
          "internalType": "string",
          "name": "",
          "type": "string"
        }
      ],
      "stateMutability": "view",
      "type": "function"
    },
    {
      "inputs": [
        {
          "internalType": "uint256",
          "name": "tokenId",
          "type": "uint256"
        }
      ],
      "name": "pickRandomThirdWord",
      "outputs": [
        {
          "internalType": "string",
          "name": "",
          "type": "string"
        }
      ],
      "stateMutability": "view",
      "type": "function"
    },
    {
      "inputs": [],
      "name": "renounceOwnership",
      "outputs": [],
      "stateMutability": "nonpayable",
      "type": "function"
    },
    {
      "inputs": [
        {
          "internalType": "address",
          "name": "from",
          "type": "address"
        },
        {
          "internalType": "address",
          "name": "to",
          "type": "address"
        },
        {
          "internalType": "uint256",
          "name": "tokenId",
          "type": "uint256"
        }
      ],
      "name": "safeTransferFrom",
      "outputs": [],
      "stateMutability": "nonpayable",
      "type": "function"
    },
    {
      "inputs": [
        {
          "internalType": "address",
          "name": "from",
          "type": "address"
        },
        {
          "internalType": "address",
          "name": "to",
          "type": "address"
        },
        {
          "internalType": "uint256",
          "name": "tokenId",
          "type": "uint256"
        },
        {
          "internalType": "bytes",
          "name": "_data",
          "type": "bytes"
        }
      ],
      "name": "safeTransferFrom",
      "outputs": [],
      "stateMutability": "nonpayable",
      "type": "function"
    },
    {
      "inputs": [
        {
          "internalType": "address",
          "name": "operator",
          "type": "address"
        },
        {
          "internalType": "bool",
          "name": "approved",
          "type": "bool"
        }
      ],
      "name": "setApprovalForAll",
      "outputs": [],
      "stateMutability": "nonpayable",
      "type": "function"
    },
    {
      "inputs": [
        {
          "internalType": "bytes4",
          "name": "interfaceId",
          "type": "bytes4"
        }
      ],
      "name": "supportsInterface",
      "outputs": [
        {
          "internalType": "bool",
          "name": "",
          "type": "bool"
        }
      ],
      "stateMutability": "view",
      "type": "function"
    },
    {
      "inputs": [],
      "name": "symbol",
      "outputs": [
        {
          "internalType": "string",
          "name": "",
          "type": "string"
        }
      ],
      "stateMutability": "view",
      "type": "function"
    },
    {
      "inputs": [
        {
          "internalType": "uint256",
          "name": "tokenId",
          "type": "uint256"
        }
      ],
      "name": "tokenURI",
      "outputs": [
        {
          "internalType": "string",
          "name": "",
          "type": "string"
        }
      ],
      "stateMutability": "view",
      "type": "function"
    },
    {
      "inputs": [
        {
          "internalType": "address",
          "name": "from",
          "type": "address"
        },
        {
          "internalType": "address",
          "name": "to",
          "type": "address"
        },
        {
          "internalType": "uint256",
          "name": "tokenId",
          "type": "uint256"
        }
      ],
      "name": "transferFrom",
      "outputs": [],
      "stateMutability": "nonpayable",
      "type": "function"
    },
    {
      "inputs": [
        {
          "internalType": "address",
          "name": "newOwner",
          "type": "address"
        }
      ],
      "name": "transferOwnership",
      "outputs": [],
      "stateMutability": "nonpayable",
      "type": "function"
    },
    {
      "inputs": [],
      "name": "withdraw",
      "outputs": [],
      "stateMutability": "payable",
      "type": "function"
    }
  ],
  "bytecode": "0x60806040526040518061012001604052806040518060400160405280600681526020017fe5b08f202d20000000000000000000000000000000000000000000000000000081525081526020016040518060400160405280600681526020017fe5a4a7202d20000000000000000000000000000000000000000000000000000081525081526020016040518060400160405280601581526020017fe5b08fe383bbe9babae5b091e381aae38281202d20000000000000000000000081525081526020016040518060400160405280601281526020017fe5b08fe383bbe382abe382bfe383a1202d20000000000000000000000000000081525081526020016040518060400160405280601281526020017fe5a4a7e383bbe382abe382bfe383a1202d20000000000000000000000000000081525081526020016040518060400160405280601281526020017fe5b08fe383bbe8b19ae3839ee382b7202d20000000000000000000000000000081525081526020016040518060400160405280601381526020017fe5b08fe383bbe8b19a57e3839ee382b7202d200000000000000000000000000081525081526020016040518060400160405280601281526020017fe5a4a7e383bbe8b19ae3839ee382b7202d20000000000000000000000000000081525081526020016040518060400160405280601381526020017fe5a4a7e383bbe8b19a57e3839ee382b7202d2000000000000000000000000000815250815250600990600962000233929190620006ef565b506040518060a001604052806040518060400160405280600c81526020017fe382a2e38396e383a9202d20000000000000000000000000000000000000000081525081526020016040518060400160405280600c81526020017fe383a4e382b5e382a4202d20000000000000000000000000000000000000000081525081526020016040518060400160405280600c81526020017fe382abe383a9e383a1202d20000000000000000000000000000000000000000081525081526020016040518060400160405280600f81526020017fe3838be383b3e3838be382af202d20000000000000000000000000000000000081525081526020016040518060400160405280600981526020017fe585a8e983a8202d200000000000000000000000000000000000000000000000815250815250600a9060056200037692919062000756565b5060405180606001604052806040518060400160405280600981526020017fe5b091e381aae38281000000000000000000000000000000000000000000000081525081526020016040518060400160405280600681526020017fe3839ee382b7000000000000000000000000000000000000000000000000000081525081526020016040518060400160405280600c81526020017fe3839ee382b7e3839ee382b70000000000000000000000000000000000000000815250815250600b90600362000443929190620007bd565b506040518060400160405280600c81526020017f43727970746f204a69726f7300000000000000000000000000000000000000008152506040518060400160405280600481526020017f4a49524f000000000000000000000000000000000000000000000000000000008152508160009080519060200190620004c892919062000824565b508060019080519060200190620004e192919062000824565b50505062000504620004f86200055560201b60201c565b6200055d60201b60201c565b6200054f6040518060400160405280601881526020017f54686973206973206d79204e465420636f6e74726163742e00000000000000008152506200062360201b620018331760201c565b62000a6f565b600033905090565b6000600760009054906101000a900473ffffffffffffffffffffffffffffffffffffffff16905081600760006101000a81548173ffffffffffffffffffffffffffffffffffffffff021916908373ffffffffffffffffffffffffffffffffffffffff1602179055508173ffffffffffffffffffffffffffffffffffffffff168173ffffffffffffffffffffffffffffffffffffffff167f8be0079c531659141344cd1fd0a4f28419497f9722a3daafe3b4186f6b6457e060405160405180910390a35050565b620006c3816040516024016200063a919062000983565b6040516020818303038152906040527f41304fac000000000000000000000000000000000000000000000000000000007bffffffffffffffffffffffffffffffffffffffffffffffffffffffff19166020820180517bffffffffffffffffffffffffffffffffffffffffffffffffffffffff8381831617835250505050620006c660201b60201c565b50565b60008151905060006a636f6e736f6c652e6c6f679050602083016000808483855afa5050505050565b82805482825590600052602060002090810192821562000743579160200282015b82811115620007425782518290805190602001906200073192919062000824565b509160200191906001019062000710565b5b509050620007529190620008b5565b5090565b828054828255906000526020600020908101928215620007aa579160200282015b82811115620007a95782518290805190602001906200079892919062000824565b509160200191906001019062000777565b5b509050620007b99190620008b5565b5090565b82805482825590600052602060002090810192821562000811579160200282015b8281111562000810578251829080519060200190620007ff92919062000824565b5091602001919060010190620007de565b5b509050620008209190620008b5565b5090565b8280546200083290620009f9565b90600052602060002090601f016020900481019282620008565760008555620008a2565b82601f106200087157805160ff1916838001178555620008a2565b82800160010185558215620008a2579182015b82811115620008a157825182559160200191906001019062000884565b5b509050620008b19190620008dd565b5090565b5b80821115620008d95760008181620008cf9190620008fc565b50600101620008b6565b5090565b5b80821115620008f8576000816000905550600101620008de565b5090565b5080546200090a90620009f9565b6000825580601f106200091e57506200093f565b601f0160209004906000526020600020908101906200093e9190620008dd565b5b50565b60006200094f82620009a7565b6200095b8185620009b2565b93506200096d818560208601620009c3565b620009788162000a5e565b840191505092915050565b600060208201905081810360008301526200099f818462000942565b905092915050565b600081519050919050565b600082825260208201905092915050565b60005b83811015620009e3578082015181840152602081019050620009c6565b83811115620009f3576000848401525b50505050565b6000600282049050600182168062000a1257607f821691505b6020821081141562000a295762000a2862000a2f565b5b50919050565b7f4e487b7100000000000000000000000000000000000000000000000000000000600052602260045260246000fd5b6000601f19601f8301169050919050565b6146218062000a7f6000396000f3fe6080604052600436106101815760003560e01c806383c4c00d116100d1578063b88d4fde1161008a578063de9d132f11610064578063de9d132f14610589578063e985e9c514610593578063f2fde38b146105d0578063fedf1327146105f957610181565b8063b88d4fde146104e6578063c575757a1461050f578063c87b56dd1461054c57610181565b806383c4c00d146103d45780638d859f3e146103ff5780638da5cb5b1461042a57806395d89b4114610455578063a22cb46514610480578063b187301f146104a957610181565b80632de38d681161013e57806342842e0e1161011857806342842e0e1461031a5780636352211e1461034357806370a0823114610380578063715018a6146103bd57610181565b80632de38d68146102a857806332cb6b0c146102e55780633ccfd60b1461031057610181565b806301ffc9a71461018657806306fdde03146101c3578063081812fc146101ee578063095ea7b31461022b57806309d42b301461025457806323b872dd1461027f575b600080fd5b34801561019257600080fd5b506101ad60048036038101906101a89190612dc1565b610624565b6040516101ba919061354d565b60405180910390f35b3480156101cf57600080fd5b506101d8610706565b6040516101e59190613568565b60405180910390f35b3480156101fa57600080fd5b5061021560048036038101906102109190612e13565b610798565b60405161022291906134bd565b60405180910390f35b34801561023757600080fd5b50610252600480360381019061024d9190612d85565b61081d565b005b34801561026057600080fd5b50610269610935565b6040516102769190613898565b60405180910390f35b34801561028b57600080fd5b506102a660048036038101906102a19190612c7f565b61093a565b005b3480156102b457600080fd5b506102cf60048036038101906102ca9190612e13565b61099a565b6040516102dc9190613568565b60405180910390f35b3480156102f157600080fd5b506102fa610b36565b6040516103079190613898565b60405180910390f35b610318610b3b565b005b34801561032657600080fd5b50610341600480360381019061033c9190612c7f565b610caf565b005b34801561034f57600080fd5b5061036a60048036038101906103659190612e13565b610ccf565b60405161037791906134bd565b60405180910390f35b34801561038c57600080fd5b506103a760048036038101906103a29190612c1a565b610d81565b6040516103b49190613898565b60405180910390f35b3480156103c957600080fd5b506103d2610e39565b005b3480156103e057600080fd5b506103e9610ec1565b6040516103f69190613898565b60405180910390f35b34801561040b57600080fd5b50610414610ed7565b6040516104219190613898565b60405180910390f35b34801561043657600080fd5b5061043f610ee2565b60405161044c91906134bd565b60405180910390f35b34801561046157600080fd5b5061046a610f0c565b6040516104779190613568565b60405180910390f35b34801561048c57600080fd5b506104a760048036038101906104a29190612d49565b610f9e565b005b3480156104b557600080fd5b506104d060048036038101906104cb9190612e13565b610fb4565b6040516104dd9190613568565b60405180910390f35b3480156104f257600080fd5b5061050d60048036038101906105089190612cce565b6110d2565b005b34801561051b57600080fd5b5061053660048036038101906105319190612e13565b611134565b6040516105439190613568565b60405180910390f35b34801561055857600080fd5b50610573600480360381019061056e9190612e13565b611252565b6040516105809190613568565b60405180910390f35b6105916113a4565b005b34801561059f57600080fd5b506105ba60048036038101906105b59190612c43565b611688565b6040516105c7919061354d565b60405180910390f35b3480156105dc57600080fd5b506105f760048036038101906105f29190612c1a565b61171c565b005b34801561060557600080fd5b5061060e611814565b60405161061b9190613568565b60405180910390f35b60007f80ac58cd000000000000000000000000000000000000000000000000000000007bffffffffffffffffffffffffffffffffffffffffffffffffffffffff1916827bffffffffffffffffffffffffffffffffffffffffffffffffffffffff191614806106ef57507f5b5e139f000000000000000000000000000000000000000000000000000000007bffffffffffffffffffffffffffffffffffffffffffffffffffffffff1916827bffffffffffffffffffffffffffffffffffffffffffffffffffffffff1916145b806106ff57506106fe826118cc565b5b9050919050565b60606000805461071590613b22565b80601f016020809104026020016040519081016040528092919081815260200182805461074190613b22565b801561078e5780601f106107635761010080835404028352916020019161078e565b820191906000526020600020905b81548152906001019060200180831161077157829003601f168201915b5050505050905090565b60006107a382611936565b6107e2576040517f08c379a00000000000000000000000000000000000000000000000000000000081526004016107d9906137d8565b60405180910390fd5b6004600083815260200190815260200160002060009054906101000a900473ffffffffffffffffffffffffffffffffffffffff169050919050565b600061082882610ccf565b90508073ffffffffffffffffffffffffffffffffffffffff168373ffffffffffffffffffffffffffffffffffffffff161415610899576040517f08c379a000000000000000000000000000000000000000000000000000000000815260040161089090613838565b60405180910390fd5b8073ffffffffffffffffffffffffffffffffffffffff166108b86119a2565b73ffffffffffffffffffffffffffffffffffffffff1614806108e757506108e6816108e16119a2565b611688565b5b610926576040517f08c379a000000000000000000000000000000000000000000000000000000000815260040161091d906136f8565b60405180910390fd5b61093083836119aa565b505050565b600381565b61094b6109456119a2565b82611a63565b61098a576040517f08c379a000000000000000000000000000000000000000000000000000000000815260040161098190613878565b60405180910390fd5b610995838383611b41565b505050565b606060006109ce6109aa84611da8565b6040516020016109ba9190613464565b604051602081830303815290604052611f55565b9050610a0f6040518060400160405280600d81526020017f72616e64202d20736565643a200000000000000000000000000000000000000081525082611f88565b60098054905081610a209190613bce565b9050610a616040518060400160405280601381526020017f72616e64202d20666972737420776f72643a200000000000000000000000000081525082611f88565b60098181548110610a9b577f4e487b7100000000000000000000000000000000000000000000000000000000600052603260045260246000fd5b906000526020600020018054610ab090613b22565b80601f0160208091040260200160405190810160405280929190818152602001828054610adc90613b22565b8015610b295780601f10610afe57610100808354040283529160200191610b29565b820191906000526020600020905b815481529060010190602001808311610b0c57829003601f168201915b5050505050915050919050565b606481565b610b436119a2565b73ffffffffffffffffffffffffffffffffffffffff16610b61610ee2565b73ffffffffffffffffffffffffffffffffffffffff1614610bb7576040517f08c379a0000000000000000000000000000000000000000000000000000000008152600401610bae906137f8565b60405180910390fd5b600047905060008111610bff576040517f08c379a0000000000000000000000000000000000000000000000000000000008152600401610bf690613798565b60405180910390fd5b60003373ffffffffffffffffffffffffffffffffffffffff1682604051610c25906134a8565b60006040518083038185875af1925050503d8060008114610c62576040519150601f19603f3d011682016040523d82523d6000602084013e610c67565b606091505b5050905080610cab576040517f08c379a0000000000000000000000000000000000000000000000000000000008152600401610ca290613858565b60405180910390fd5b5050565b610cca838383604051806020016040528060008152506110d2565b505050565b6000806002600084815260200190815260200160002060009054906101000a900473ffffffffffffffffffffffffffffffffffffffff169050600073ffffffffffffffffffffffffffffffffffffffff168173ffffffffffffffffffffffffffffffffffffffff161415610d78576040517f08c379a0000000000000000000000000000000000000000000000000000000008152600401610d6f90613738565b60405180910390fd5b80915050919050565b60008073ffffffffffffffffffffffffffffffffffffffff168273ffffffffffffffffffffffffffffffffffffffff161415610df2576040517f08c379a0000000000000000000000000000000000000000000000000000000008152600401610de990613718565b60405180910390fd5b600360008373ffffffffffffffffffffffffffffffffffffffff1673ffffffffffffffffffffffffffffffffffffffff168152602001908152602001600020549050919050565b610e416119a2565b73ffffffffffffffffffffffffffffffffffffffff16610e5f610ee2565b73ffffffffffffffffffffffffffffffffffffffff1614610eb5576040517f08c379a0000000000000000000000000000000000000000000000000000000008152600401610eac906137f8565b60405180910390fd5b610ebf6000612024565b565b600080610ece60086120ea565b90508091505090565b66038d7ea4c6800081565b6000600760009054906101000a900473ffffffffffffffffffffffffffffffffffffffff16905090565b606060018054610f1b90613b22565b80601f0160208091040260200160405190810160405280929190818152602001828054610f4790613b22565b8015610f945780601f10610f6957610100808354040283529160200191610f94565b820191906000526020600020905b815481529060010190602001808311610f7757829003601f168201915b5050505050905090565b610fb0610fa96119a2565b83836120f8565b5050565b60606000610fe8610fc484611da8565b604051602001610fd491906133fd565b604051602081830303815290604052611f55565b9050600a8054905081610ffb9190613bce565b9050600a8181548110611037577f4e487b7100000000000000000000000000000000000000000000000000000000600052603260045260246000fd5b90600052602060002001805461104c90613b22565b80601f016020809104026020016040519081016040528092919081815260200182805461107890613b22565b80156110c55780601f1061109a576101008083540402835291602001916110c5565b820191906000526020600020905b8154815290600101906020018083116110a857829003601f168201915b5050505050915050919050565b6110e36110dd6119a2565b83611a63565b611122576040517f08c379a000000000000000000000000000000000000000000000000000000000815260040161111990613878565b60405180910390fd5b61112e84848484612265565b50505050565b6060600061116861114484611da8565b60405160200161115491906133db565b604051602081830303815290604052611f55565b9050600b805490508161117b9190613bce565b9050600b81815481106111b7577f4e487b7100000000000000000000000000000000000000000000000000000000600052603260045260246000fd5b9060005260206000200180546111cc90613b22565b80601f01602080910402602001604051908101604052809291908181526020018280546111f890613b22565b80156112455780601f1061121a57610100808354040283529160200191611245565b820191906000526020600020905b81548152906001019060200180831161122857829003601f168201915b5050505050915050919050565b606061125d82611936565b61129c576040517f08c379a0000000000000000000000000000000000000000000000000000000008152600401611293906137b8565b60405180910390fd5b60006006600084815260200190815260200160002080546112bc90613b22565b80601f01602080910402602001604051908101604052809291908181526020018280546112e890613b22565b80156113355780601f1061130a57610100808354040283529160200191611335565b820191906000526020600020905b81548152906001019060200180831161131857829003601f168201915b5050505050905060006113466122c1565b905060008151141561135c57819250505061139f565b60008251111561139157808260405160200161137992919061333d565b6040516020818303038152906040529250505061139f565b61139a846122d8565b925050505b919050565b60006113b060086120ea565b905080606410156113c15750611686565b66038d7ea4c6800034101561140b576040517f08c379a0000000000000000000000000000000000000000000000000000000008152600401611402906136b8565b60405180910390fd5b60006114168261099a565b9050600061142383610fb4565b9050600061143084611134565b9050600083838360405160200161144993929190613361565b604051602081830303815290604052905060006040518061016001604052806101308152602001614457610130913985858560405160200161148e9493929190613392565b60405160208183030381529060405290506114dd6040518060400160405280601581526020017f0a2d2d2d2d2d205356472064617461202d2d2d2d2d0000000000000000000000815250611833565b6114e681611833565b6115246040518060400160405280601581526020017f2d2d2d2d2d2d2d2d2d2d2d2d2d2d2d2d2d2d2d2d0a0000000000000000000000815250611833565b6000611558836115338461237f565b60405160200161154492919061341f565b60405160208183030381529060405261237f565b905060008160405160200161156d9190613486565b60405160208183030381529060405290506115bc6040518060400160405280601581526020017f0a2d2d2d2d2d20546f6b656e20555249202d2d2d2d0000000000000000000000815250611833565b6115c581611833565b6116036040518060400160405280601581526020017f2d2d2d2d2d2d2d2d2d2d2d2d2d2d2d2d2d2d2d2d0a0000000000000000000000815250611833565b61160d600861253d565b6116173389612553565b6116218882612571565b6116446040518060600160405280602581526020016145876025913989336125e5565b7febb98688741ffa4c7589bf325de30cf7becb63de567842e1ccdb6cb949fdc82c3389604051611675929190613524565b60405180910390a150505050505050505b565b6000600560008473ffffffffffffffffffffffffffffffffffffffff1673ffffffffffffffffffffffffffffffffffffffff16815260200190815260200160002060008373ffffffffffffffffffffffffffffffffffffffff1673ffffffffffffffffffffffffffffffffffffffff16815260200190815260200160002060009054906101000a900460ff16905092915050565b6117246119a2565b73ffffffffffffffffffffffffffffffffffffffff16611742610ee2565b73ffffffffffffffffffffffffffffffffffffffff1614611798576040517f08c379a000000000000000000000000000000000000000000000000000000000815260040161178f906137f8565b60405180910390fd5b600073ffffffffffffffffffffffffffffffffffffffff168173ffffffffffffffffffffffffffffffffffffffff161415611808576040517f08c379a00000000000000000000000000000000000000000000000000000000081526004016117ff90613618565b60405180910390fd5b61181181612024565b50565b6040518061016001604052806101308152602001614457610130913981565b6118c9816040516024016118479190613568565b6040516020818303038152906040527f41304fac000000000000000000000000000000000000000000000000000000007bffffffffffffffffffffffffffffffffffffffffffffffffffffffff19166020820180517bffffffffffffffffffffffffffffffffffffffffffffffffffffffff8381831617835250505050612684565b50565b60007f01ffc9a7000000000000000000000000000000000000000000000000000000007bffffffffffffffffffffffffffffffffffffffffffffffffffffffff1916827bffffffffffffffffffffffffffffffffffffffffffffffffffffffff1916149050919050565b60008073ffffffffffffffffffffffffffffffffffffffff166002600084815260200190815260200160002060009054906101000a900473ffffffffffffffffffffffffffffffffffffffff1673ffffffffffffffffffffffffffffffffffffffff1614159050919050565b600033905090565b816004600083815260200190815260200160002060006101000a81548173ffffffffffffffffffffffffffffffffffffffff021916908373ffffffffffffffffffffffffffffffffffffffff160217905550808273ffffffffffffffffffffffffffffffffffffffff16611a1d83610ccf565b73ffffffffffffffffffffffffffffffffffffffff167f8c5be1e5ebec7d5bd14f71427d1e84f3dd0314c0f7b2291e5b200ac8c7c3b92560405160405180910390a45050565b6000611a6e82611936565b611aad576040517f08c379a0000000000000000000000000000000000000000000000000000000008152600401611aa4906136d8565b60405180910390fd5b6000611ab883610ccf565b90508073ffffffffffffffffffffffffffffffffffffffff168473ffffffffffffffffffffffffffffffffffffffff161480611b2757508373ffffffffffffffffffffffffffffffffffffffff16611b0f84610798565b73ffffffffffffffffffffffffffffffffffffffff16145b80611b385750611b378185611688565b5b91505092915050565b8273ffffffffffffffffffffffffffffffffffffffff16611b6182610ccf565b73ffffffffffffffffffffffffffffffffffffffff1614611bb7576040517f08c379a0000000000000000000000000000000000000000000000000000000008152600401611bae90613638565b60405180910390fd5b600073ffffffffffffffffffffffffffffffffffffffff168273ffffffffffffffffffffffffffffffffffffffff161415611c27576040517f08c379a0000000000000000000000000000000000000000000000000000000008152600401611c1e90613678565b60405180910390fd5b611c328383836126ad565b611c3d6000826119aa565b6001600360008573ffffffffffffffffffffffffffffffffffffffff1673ffffffffffffffffffffffffffffffffffffffff1681526020019081526020016000206000828254611c8d9190613a38565b925050819055506001600360008473ffffffffffffffffffffffffffffffffffffffff1673ffffffffffffffffffffffffffffffffffffffff1681526020019081526020016000206000828254611ce49190613957565b92505081905550816002600083815260200190815260200160002060006101000a81548173ffffffffffffffffffffffffffffffffffffffff021916908373ffffffffffffffffffffffffffffffffffffffff160217905550808273ffffffffffffffffffffffffffffffffffffffff168473ffffffffffffffffffffffffffffffffffffffff167fddf252ad1be2c89b69c2b068fc378daa952ba7f163c4a11628f55a4df523b3ef60405160405180910390a4611da38383836126b2565b505050565b60606000821415611df0576040518060400160405280600181526020017f30000000000000000000000000000000000000000000000000000000000000008152509050611f50565b600082905060005b60008214611e22578080611e0b90613b85565b915050600a82611e1b91906139ad565b9150611df8565b60008167ffffffffffffffff811115611e64577f4e487b7100000000000000000000000000000000000000000000000000000000600052604160045260246000fd5b6040519080825280601f01601f191660200182016040528015611e965781602001600182028036833780820191505090505b5090505b60008514611f4957600182611eaf9190613a38565b9150600a85611ebe9190613bce565b6030611eca9190613957565b60f81b818381518110611f06577f4e487b7100000000000000000000000000000000000000000000000000000000600052603260045260246000fd5b60200101907effffffffffffffffffffffffffffffffffffffffffffffffffffffffffffff1916908160001a905350600a85611f4291906139ad565b9450611e9a565b8093505050505b919050565b600081604051602001611f689190613326565b6040516020818303038152906040528051906020012060001c9050919050565b6120208282604051602401611f9e92919061358a565b6040516020818303038152906040527f9710a9d0000000000000000000000000000000000000000000000000000000007bffffffffffffffffffffffffffffffffffffffffffffffffffffffff19166020820180517bffffffffffffffffffffffffffffffffffffffffffffffffffffffff8381831617835250505050612684565b5050565b6000600760009054906101000a900473ffffffffffffffffffffffffffffffffffffffff16905081600760006101000a81548173ffffffffffffffffffffffffffffffffffffffff021916908373ffffffffffffffffffffffffffffffffffffffff1602179055508173ffffffffffffffffffffffffffffffffffffffff168173ffffffffffffffffffffffffffffffffffffffff167f8be0079c531659141344cd1fd0a4f28419497f9722a3daafe3b4186f6b6457e060405160405180910390a35050565b600081600001549050919050565b8173ffffffffffffffffffffffffffffffffffffffff168373ffffffffffffffffffffffffffffffffffffffff161415612167576040517f08c379a000000000000000000000000000000000000000000000000000000000815260040161215e90613698565b60405180910390fd5b80600560008573ffffffffffffffffffffffffffffffffffffffff1673ffffffffffffffffffffffffffffffffffffffff16815260200190815260200160002060008473ffffffffffffffffffffffffffffffffffffffff1673ffffffffffffffffffffffffffffffffffffffff16815260200190815260200160002060006101000a81548160ff0219169083151502179055508173ffffffffffffffffffffffffffffffffffffffff168373ffffffffffffffffffffffffffffffffffffffff167f17307eab39ab6107e8899845ad3d59bd9653f200f220920489ca2b5937696c3183604051612258919061354d565b60405180910390a3505050565b612270848484611b41565b61227c848484846126b7565b6122bb576040517f08c379a00000000000000000000000000000000000000000000000000000000081526004016122b2906135f8565b60405180910390fd5b50505050565b606060405180602001604052806000815250905090565b60606122e382611936565b612322576040517f08c379a000000000000000000000000000000000000000000000000000000000815260040161231990613818565b60405180910390fd5b600061232c6122c1565b9050600081511161234c5760405180602001604052806000815250612377565b8061235684611da8565b60405160200161236792919061333d565b6040516020818303038152906040525b915050919050565b606060008251905060008114156123a85760405180602001604052806000815250915050612538565b600060036002836123b99190613957565b6123c391906139ad565b60046123cf91906139de565b905060006020826123e09190613957565b67ffffffffffffffff81111561241f577f4e487b7100000000000000000000000000000000000000000000000000000000600052604160045260246000fd5b6040519080825280601f01601f1916602001820160405280156124515781602001600182028036833780820191505090505b50905060006040518060600160405280604081526020016145ac604091399050600181016020830160005b868110156124f55760038101905062ffffff818a015116603f8160121c168401518060081b905060ff603f83600c1c1686015116810190508060081b905060ff603f8360061c1686015116810190508060081b905060ff603f831686015116810190508060e01b9050808452600484019350505061247c565b50600386066001811461250f576002811461251f5761252a565b613d3d60f01b600283035261252a565b603d60f81b60018303525b508484525050819450505050505b919050565b6001816000016000828254019250508190555050565b61256d82826040518060200160405280600081525061284e565b5050565b61257a82611936565b6125b9576040517f08c379a00000000000000000000000000000000000000000000000000000000081526004016125b090613758565b60405180910390fd5b806006600084815260200190815260200160002090805190602001906125e0929190612aa6565b505050565b61267f8383836040516024016125fd939291906135ba565b6040516020818303038152906040527fe3849f79000000000000000000000000000000000000000000000000000000007bffffffffffffffffffffffffffffffffffffffffffffffffffffffff19166020820180517bffffffffffffffffffffffffffffffffffffffffffffffffffffffff8381831617835250505050612684565b505050565b60008151905060006a636f6e736f6c652e6c6f679050602083016000808483855afa5050505050565b505050565b505050565b60006126d88473ffffffffffffffffffffffffffffffffffffffff166128a9565b15612841578373ffffffffffffffffffffffffffffffffffffffff1663150b7a026127016119a2565b8786866040518563ffffffff1660e01b815260040161272394939291906134d8565b602060405180830381600087803b15801561273d57600080fd5b505af192505050801561276e57506040513d601f19601f8201168201806040525081019061276b9190612dea565b60015b6127f1573d806000811461279e576040519150601f19603f3d011682016040523d82523d6000602084013e6127a3565b606091505b506000815114156127e9576040517f08c379a00000000000000000000000000000000000000000000000000000000081526004016127e0906135f8565b60405180910390fd5b805181602001fd5b63150b7a0260e01b7bffffffffffffffffffffffffffffffffffffffffffffffffffffffff1916817bffffffffffffffffffffffffffffffffffffffffffffffffffffffff191614915050612846565b600190505b949350505050565b61285883836128cc565b61286560008484846126b7565b6128a4576040517f08c379a000000000000000000000000000000000000000000000000000000000815260040161289b906135f8565b60405180910390fd5b505050565b6000808273ffffffffffffffffffffffffffffffffffffffff163b119050919050565b600073ffffffffffffffffffffffffffffffffffffffff168273ffffffffffffffffffffffffffffffffffffffff16141561293c576040517f08c379a000000000000000000000000000000000000000000000000000000000815260040161293390613778565b60405180910390fd5b61294581611936565b15612985576040517f08c379a000000000000000000000000000000000000000000000000000000000815260040161297c90613658565b60405180910390fd5b612991600083836126ad565b6001600360008473ffffffffffffffffffffffffffffffffffffffff1673ffffffffffffffffffffffffffffffffffffffff16815260200190815260200160002060008282546129e19190613957565b92505081905550816002600083815260200190815260200160002060006101000a81548173ffffffffffffffffffffffffffffffffffffffff021916908373ffffffffffffffffffffffffffffffffffffffff160217905550808273ffffffffffffffffffffffffffffffffffffffff16600073ffffffffffffffffffffffffffffffffffffffff167fddf252ad1be2c89b69c2b068fc378daa952ba7f163c4a11628f55a4df523b3ef60405160405180910390a4612aa2600083836126b2565b5050565b828054612ab290613b22565b90600052602060002090601f016020900481019282612ad45760008555612b1b565b82601f10612aed57805160ff1916838001178555612b1b565b82800160010185558215612b1b579182015b82811115612b1a578251825591602001919060010190612aff565b5b509050612b289190612b2c565b5090565b5b80821115612b45576000816000905550600101612b2d565b5090565b6000612b5c612b57846138d8565b6138b3565b905082815260208101848484011115612b7457600080fd5b612b7f848285613ae0565b509392505050565b600081359050612b96816143fa565b92915050565b600081359050612bab81614411565b92915050565b600081359050612bc081614428565b92915050565b600081519050612bd581614428565b92915050565b600082601f830112612bec57600080fd5b8135612bfc848260208601612b49565b91505092915050565b600081359050612c148161443f565b92915050565b600060208284031215612c2c57600080fd5b6000612c3a84828501612b87565b91505092915050565b60008060408385031215612c5657600080fd5b6000612c6485828601612b87565b9250506020612c7585828601612b87565b9150509250929050565b600080600060608486031215612c9457600080fd5b6000612ca286828701612b87565b9350506020612cb386828701612b87565b9250506040612cc486828701612c05565b9150509250925092565b60008060008060808587031215612ce457600080fd5b6000612cf287828801612b87565b9450506020612d0387828801612b87565b9350506040612d1487828801612c05565b925050606085013567ffffffffffffffff811115612d3157600080fd5b612d3d87828801612bdb565b91505092959194509250565b60008060408385031215612d5c57600080fd5b6000612d6a85828601612b87565b9250506020612d7b85828601612b9c565b9150509250929050565b60008060408385031215612d9857600080fd5b6000612da685828601612b87565b9250506020612db785828601612c05565b9150509250929050565b600060208284031215612dd357600080fd5b6000612de184828501612bb1565b91505092915050565b600060208284031215612dfc57600080fd5b6000612e0a84828501612bc6565b91505092915050565b600060208284031215612e2557600080fd5b6000612e3384828501612c05565b91505092915050565b612e4581613a6c565b82525050565b612e5481613a7e565b82525050565b6000612e6582613909565b612e6f818561391f565b9350612e7f818560208601613aef565b612e8881613cbb565b840191505092915050565b6000612e9e82613914565b612ea8818561393b565b9350612eb8818560208601613aef565b612ec181613cbb565b840191505092915050565b6000612ed782613914565b612ee1818561394c565b9350612ef1818560208601613aef565b80840191505092915050565b6000612f0a604d8361394c565b9150612f1582613ccc565b604d82019050919050565b6000612f2d60328361393b565b9150612f3882613d41565b604082019050919050565b6000612f5060268361393b565b9150612f5b82613d90565b604082019050919050565b6000612f7360258361393b565b9150612f7e82613ddf565b604082019050919050565b6000612f96601c8361393b565b9150612fa182613e2e565b602082019050919050565b6000612fb9600a8361394c565b9150612fc482613e57565b600a82019050919050565b6000612fdc60248361393b565b9150612fe782613e80565b604082019050919050565b6000612fff60198361393b565b915061300a82613ecf565b602082019050919050565b6000613022600b8361394c565b915061302d82613ef8565b600b82019050919050565b600061304560228361393b565b915061305082613f21565b604082019050919050565b6000613068602c8361393b565b915061307382613f70565b604082019050919050565b600061308b600d8361394c565b915061309682613fbf565b600d82019050919050565b60006130ae60388361393b565b91506130b982613fe8565b604082019050919050565b60006130d1602a8361393b565b91506130dc82614037565b604082019050919050565b60006130f460298361393b565b91506130ff82614086565b604082019050919050565b6000613117602e8361393b565b9150613122826140d5565b604082019050919050565b600061313a60028361394c565b915061314582614124565b600282019050919050565b600061315d60208361393b565b91506131688261414d565b602082019050919050565b600061318060198361393b565b915061318b82614176565b602082019050919050565b60006131a360318361393b565b91506131ae8261419f565b604082019050919050565b60006131c6602c8361393b565b91506131d1826141ee565b604082019050919050565b60006131e960208361393b565b91506131f48261423d565b602082019050919050565b600061320c602f8361393b565b915061321782614266565b604082019050919050565b600061322f600a8361394c565b915061323a826142b5565b600a82019050919050565b600061325260218361393b565b915061325d826142de565b604082019050919050565b6000613275600a8361394c565b91506132808261432d565b600a82019050919050565b6000613298601d8361394c565b91506132a382614356565b601d82019050919050565b60006132bb600083613930565b91506132c68261437f565b600082019050919050565b60006132de60108361393b565b91506132e982614382565b602082019050919050565b600061330160318361393b565b915061330c826143ab565b604082019050919050565b61332081613ad6565b82525050565b60006133328284612ecc565b915081905092915050565b60006133498285612ecc565b91506133558284612ecc565b91508190509392505050565b600061336d8286612ecc565b91506133798285612ecc565b91506133858284612ecc565b9150819050949350505050565b600061339e8287612ecc565b91506133aa8286612ecc565b91506133b68285612ecc565b91506133c28284612ecc565b91506133cd8261307e565b915081905095945050505050565b60006133e682612fac565b91506133f28284612ecc565b915081905092915050565b600061340882613015565b91506134148284612ecc565b915081905092915050565b600061342a82613222565b91506134368285612ecc565b915061344182612efd565b915061344d8284612ecc565b91506134588261312d565b91508190509392505050565b600061346f82613268565b915061347b8284612ecc565b915081905092915050565b60006134918261328b565b915061349d8284612ecc565b915081905092915050565b60006134b3826132ae565b9150819050919050565b60006020820190506134d26000830184612e3c565b92915050565b60006080820190506134ed6000830187612e3c565b6134fa6020830186612e3c565b6135076040830185613317565b81810360608301526135198184612e5a565b905095945050505050565b60006040820190506135396000830185612e3c565b6135466020830184613317565b9392505050565b60006020820190506135626000830184612e4b565b92915050565b600060208201905081810360008301526135828184612e93565b905092915050565b600060408201905081810360008301526135a48185612e93565b90506135b36020830184613317565b9392505050565b600060608201905081810360008301526135d48186612e93565b90506135e36020830185613317565b6135f06040830184612e3c565b949350505050565b6000602082019050818103600083015261361181612f20565b9050919050565b6000602082019050818103600083015261363181612f43565b9050919050565b6000602082019050818103600083015261365181612f66565b9050919050565b6000602082019050818103600083015261367181612f89565b9050919050565b6000602082019050818103600083015261369181612fcf565b9050919050565b600060208201905081810360008301526136b181612ff2565b9050919050565b600060208201905081810360008301526136d181613038565b9050919050565b600060208201905081810360008301526136f18161305b565b9050919050565b60006020820190508181036000830152613711816130a1565b9050919050565b60006020820190508181036000830152613731816130c4565b9050919050565b60006020820190508181036000830152613751816130e7565b9050919050565b600060208201905081810360008301526137718161310a565b9050919050565b6000602082019050818103600083015261379181613150565b9050919050565b600060208201905081810360008301526137b181613173565b9050919050565b600060208201905081810360008301526137d181613196565b9050919050565b600060208201905081810360008301526137f1816131b9565b9050919050565b60006020820190508181036000830152613811816131dc565b9050919050565b60006020820190508181036000830152613831816131ff565b9050919050565b6000602082019050818103600083015261385181613245565b9050919050565b60006020820190508181036000830152613871816132d1565b9050919050565b60006020820190508181036000830152613891816132f4565b9050919050565b60006020820190506138ad6000830184613317565b92915050565b60006138bd6138ce565b90506138c98282613b54565b919050565b6000604051905090565b600067ffffffffffffffff8211156138f3576138f2613c8c565b5b6138fc82613cbb565b9050602081019050919050565b600081519050919050565b600081519050919050565b600082825260208201905092915050565b600081905092915050565b600082825260208201905092915050565b600081905092915050565b600061396282613ad6565b915061396d83613ad6565b9250827fffffffffffffffffffffffffffffffffffffffffffffffffffffffffffffffff038211156139a2576139a1613bff565b5b828201905092915050565b60006139b882613ad6565b91506139c383613ad6565b9250826139d3576139d2613c2e565b5b828204905092915050565b60006139e982613ad6565b91506139f483613ad6565b9250817fffffffffffffffffffffffffffffffffffffffffffffffffffffffffffffffff0483118215151615613a2d57613a2c613bff565b5b828202905092915050565b6000613a4382613ad6565b9150613a4e83613ad6565b925082821015613a6157613a60613bff565b5b828203905092915050565b6000613a7782613ab6565b9050919050565b60008115159050919050565b60007fffffffff0000000000000000000000000000000000000000000000000000000082169050919050565b600073ffffffffffffffffffffffffffffffffffffffff82169050919050565b6000819050919050565b82818337600083830152505050565b60005b83811015613b0d578082015181840152602081019050613af2565b83811115613b1c576000848401525b50505050565b60006002820490506001821680613b3a57607f821691505b60208210811415613b4e57613b4d613c5d565b5b50919050565b613b5d82613cbb565b810181811067ffffffffffffffff82111715613b7c57613b7b613c8c565b5b80604052505050565b6000613b9082613ad6565b91507fffffffffffffffffffffffffffffffffffffffffffffffffffffffffffffffff821415613bc357613bc2613bff565b5b600182019050919050565b6000613bd982613ad6565b9150613be483613ad6565b925082613bf457613bf3613c2e565b5b828206905092915050565b7f4e487b7100000000000000000000000000000000000000000000000000000000600052601160045260246000fd5b7f4e487b7100000000000000000000000000000000000000000000000000000000600052601260045260246000fd5b7f4e487b7100000000000000000000000000000000000000000000000000000000600052602260045260246000fd5b7f4e487b7100000000000000000000000000000000000000000000000000000000600052604160045260246000fd5b6000601f19601f8301169050919050565b7f222c20226465736372697074696f6e223a20225468697320697320437279707460008201527f6f204a69726f222c2022696d616765223a2022646174613a696d6167652f737660208201527f672b786d6c3b6261736536342c00000000000000000000000000000000000000604082015250565b7f4552433732313a207472616e7366657220746f206e6f6e20455243373231526560008201527f63656976657220696d706c656d656e7465720000000000000000000000000000602082015250565b7f4f776e61626c653a206e6577206f776e657220697320746865207a65726f206160008201527f6464726573730000000000000000000000000000000000000000000000000000602082015250565b7f4552433732313a207472616e736665722066726f6d20696e636f72726563742060008201527f6f776e6572000000000000000000000000000000000000000000000000000000602082015250565b7f4552433732313a20746f6b656e20616c7265616479206d696e74656400000000600082015250565b7f54484952445f574f524400000000000000000000000000000000000000000000600082015250565b7f4552433732313a207472616e7366657220746f20746865207a65726f2061646460008201527f7265737300000000000000000000000000000000000000000000000000000000602082015250565b7f4552433732313a20617070726f766520746f2063616c6c657200000000000000600082015250565b7f5345434f4e445f574f5244000000000000000000000000000000000000000000600082015250565b7f4e6f7420656e6f75676820657468657220746f207075726368617365204e465460008201527f732e000000000000000000000000000000000000000000000000000000000000602082015250565b7f4552433732313a206f70657261746f7220717565727920666f72206e6f6e657860008201527f697374656e7420746f6b656e0000000000000000000000000000000000000000602082015250565b7f3c2f746578743e3c2f7376673e00000000000000000000000000000000000000600082015250565b7f4552433732313a20617070726f76652063616c6c6572206973206e6f74206f7760008201527f6e6572206e6f7220617070726f76656420666f7220616c6c0000000000000000602082015250565b7f4552433732313a2062616c616e636520717565727920666f7220746865207a6560008201527f726f206164647265737300000000000000000000000000000000000000000000602082015250565b7f4552433732313a206f776e657220717565727920666f72206e6f6e657869737460008201527f656e7420746f6b656e0000000000000000000000000000000000000000000000602082015250565b7f45524337323155524953746f726167653a2055524920736574206f66206e6f6e60008201527f6578697374656e7420746f6b656e000000000000000000000000000000000000602082015250565b7f227d000000000000000000000000000000000000000000000000000000000000600082015250565b7f4552433732313a206d696e7420746f20746865207a65726f2061646472657373600082015250565b7f4e6f206574686572206c65667420746f20776974686472617700000000000000600082015250565b7f45524337323155524953746f726167653a2055524920717565727920666f722060008201527f6e6f6e6578697374656e7420746f6b656e000000000000000000000000000000602082015250565b7f4552433732313a20617070726f76656420717565727920666f72206e6f6e657860008201527f697374656e7420746f6b656e0000000000000000000000000000000000000000602082015250565b7f4f776e61626c653a2063616c6c6572206973206e6f7420746865206f776e6572600082015250565b7f4552433732314d657461646174613a2055524920717565727920666f72206e6f60008201527f6e6578697374656e7420746f6b656e0000000000000000000000000000000000602082015250565b7f7b226e616d65223a202200000000000000000000000000000000000000000000600082015250565b7f4552433732313a20617070726f76616c20746f2063757272656e74206f776e6560008201527f7200000000000000000000000000000000000000000000000000000000000000602082015250565b7f46495253545f574f524400000000000000000000000000000000000000000000600082015250565b7f646174613a6170706c69636174696f6e2f6a736f6e3b6261736536342c000000600082015250565b50565b7f5472616e73666572206661696c65642e00000000000000000000000000000000600082015250565b7f4552433732313a207472616e736665722063616c6c6572206973206e6f74206f60008201527f776e6572206e6f7220617070726f766564000000000000000000000000000000602082015250565b61440381613a6c565b811461440e57600080fd5b50565b61441a81613a7e565b811461442557600080fd5b50565b61443181613a8a565b811461443c57600080fd5b50565b61444881613ad6565b811461445357600080fd5b5056fe3c73766720786d6c6e733d27687474703a2f2f7777772e77332e6f72672f323030302f73766727207072657365727665417370656374526174696f3d27784d696e594d696e206d656574272076696577426f783d273020302033353020333530273e3c7374796c653e2e62617365207b2066696c6c3a2077686974653b20666f6e742d66616d696c793a2073657269663b20666f6e742d73697a653a20323470783b207d3c2f7374796c653e3c726563742077696474683d273130302527206865696768743d2731303025272066696c6c3d2723643763663361272f3e3c7465787420783d273530252720793d273530252720636c6173733d27626173652720646f6d696e616e742d626173656c696e653d276d6964646c652720746578742d616e63686f723d276d6964646c65273e416e204e465420772f20494420257320686173206265656e206d696e74656420746f2025734142434445464748494a4b4c4d4e4f505152535455565758595a6162636465666768696a6b6c6d6e6f707172737475767778797a303132333435363738392b2fa2646970667358221220852c298fe76d67edebafc8b51155eec8ffbb1f73baee51708e373406d257399364736f6c63430008040033",
  "linkReferences": {},
  "deployedLinkReferences": {}
}